S0270000313474685F776972656C6573735F656E657267795F736176696E675F4B36302E737265630F
S1130000001EFF1F110400002104000043D1000062
S1130010210400002104000021040000000000006D
S113002000000000000000000000000021040000A7
S11300302104000000000000210400002DE0000065
S113004005D400001BD4000031D4000047D40000C4
S11300505DD4000073D4000089D400009FD4000054
S1130060B5D40000CBD40000E1D40000F7D40000E4
S11300700DD5000023D5000039D500004FD5000070
S113008021040000210400002104000021040000D8
S113009021040000210400002104000021040000C8
S11300A065D60000BFD6000031BE0000DBBE0000F4
S11300B085BF0000FBCD000003CE00000BCE000086
S11300C019CE000023CE00002DCE00002FCE00005C
S11300D031CE000033CE00003BCE000043CE000002
S11300E051CE00005BCE000081CE000083CE000024
S11300F085CE0000698D000021040000998D000068
S113010021040000C98D000021040000F98D0000C5
S113011021040000298E000021040000598E0000F3
S113012021040000537800005D78000021040000E1
S113013021040000210400002D98000037980000DD
S1130140419800002104000029DC000000000000A8
S11301504BC7000061C7000077C700008DC70000CF
S1130160CDDA00003DE000002104000099DA00002F
S113017073DA00004DDA0000AFDA00002104000059
S11301802104000071D50000DBD500004DDB000028
S113019021040000F5BD000021040000A92D000089
S11301A0BB2D0000CD2D0000DF2D0000F12D00003F
S11301B021040000210400002104000021040000A7
S11301C02104000021040000210400002104000097
S11301D02104000021040000210400002104000087
S11301E04DD100004DD100004DD100004DD1000093
S1130410014880470148004729D0000089CE0000E8
S11304200CF094BE002005E0491C41F28832914250
S1130430FAD3401CB0F57A7F01D20021F5E770476A
S113044080B5684601F013FB8DF800009DF80000AC
S1130450002824D0FFF7E6FF684601F008FB9DF86A
S11304600000052801D105201AE09DF800000128AC
S113047001D1012014E09DF80000022801D10220DE
S11304800EE09DF80000032801D1032008E09DF848
S11304900000042801D1042002E0002000E0002034
S11304A002BD10B5040001F015FBDFF8E80AB0F94D
S11304B000002080DFF8DC0AB0F902006080DFF879
S11304C0D40AB0F90400A080DFF8C80AB0F9060025
S11304D0E080DFF8C00AB0F908002081DFF8B40A30
S11304E0B0F90A006081DFF8AC0AB0F90C00A08111
S11304F0DFF8A00AB0F90E00E081DFF8980AB0F93D
S113050010002082DFF88C0AB0F912006082DFF854
S1130510840AB0F91400A082DFF8780AB0F9160052
S1130520E082DFF8700AB0F918002083DFF8640A6B
S1130530B0F91A006083DFF85C0AB0F91C00A083EC
S1130540DFF8500AB0F91E00E083DFF8480AB0F97A
S113055020002084DFF83C0AB0F922006084DFF830
S1130560340AB0F92400A084DFF8280AB0F9260080
S1130570E084DFF8200AB0F928002085DFF8140AA7
S1130580B0F92A006085DFF80C0AB0F92C00A085C8
S1130590DFF8000AB0F92E00E085DFF8F809B0F9B9
S11305A030002086DFF8EC09B0F932006086DFF80D
S11305B0E409B0F93400A086DFF8D809B0F93600B0
S11305C0E086DFF8D009B0F938002087DFF8C409E5
S11305D0B0F93A006087DFF8BC09B0F93C00A087A5
S11305E0DFF8B009B0F93E00E087DFF8A809B0F9F8
S11305F04000A4F84000DFF89C09B0F94200A4F8D8
S11306004200DFF89009B0F94400A4F84400DFF890
S11306108409B0F94600A4F84600DFF87809B0F977
S11306204800A4F84800DFF86C09B0F94A00A4F8BF
S11306304A00DFF86009B0F94C00A4F84C00DFF878
S11306405409B0F94E00A4F84E00DFF84809B0F997
S11306505000A4F85000DFF83C09B0F95200A4F8A7
S11306605200DFF83009B0F86400DFF82C19088074
S1130670DFF82009B0F86600DFF820190880DFF8F9
S11306801409B0F86800DFF814194880DFF8040989
S1130690B0F86A00DFF804198880DFF8F808B0F8C9
S11306A06C00DFF8F818C880DFF8E808B0F86E00CE
S11306B0DFF8E8180881DFF8DC08B0F87000DFF82C
S11306C0DC184881DFF8CC08B0F87200DFF8CC18E9
S11306D08881DFF8C008B0F87400DFF8C018C8815A
S11306E010BD10B50400B4F90000012190FBF1F035
S11306F0DFF8AC180860B4F90200012190FBF1F0B6
S113070001F008FADFF89C180860B4F9040001212C
S113071090FBF1F001F0FEF9DFF88C180860B4F9F1
S11307200600012190FBF1F001F0F4F9DFF87C18E8
S11307300860B4F90800012190FBF1F001F0EAF936
S1130740DFF86C180860B4F90A00012190FBF1F09D
S1130750DFF860180880B4F90C00012190FBF1F077
S113076001F0D8F9DFF850180860B4F90E0001213F
S113077090FBF1F0DFF844180880B4F9100001216F
S113078090FBF1F0DFF838180880B4F91200012169
S113079090FBF1F0DFF82C180880B4F91400012163
S11307A090FBF1F0DFF820180880B4F9160001215D
S11307B090FBF1F0DFF814180860B4F91800012177
S11307C090FBF1F0DFF808180860B4F91A00012171
S11307D090FBF1F001F09EF9DFF8F8170860B4F926
S11307E01C00012190FBF1F0DFF8EC170860B4F96C
S11307F01E00012190FBF1F0DFF8E0170860B4F966
S11308002000012190FBF1F001F084F9DFF8D0170A
S11308100860B4F92200012190FBF1F001F07AF9AB
S1130820DFF8C0170860B4F92400012190FBF1F04F
S1130830DFF8B4170880B4F92600012190FBF1F029
S1130840DFF8A8170880B4F92800012190FBF1F023
S113085001F060F9DFF898170860B4F92A00012163
S113086090FBF1F001F056F9DFF888170860B4F94D
S11308702C00012190FBF1F001F04CF9DFF878171E
S11308800860B4F92E00012190FBF1F001F042F967
S1130890DFF868170860B4F93000012190FBF1F02B
S11308A001F038F9DFF858170860B4F93200012173
S11308B090FBF1F001F02EF9DFF848170860B4F965
S11308C03400012190FBF1F0DFF83C170860B4F923
S11308D03600012190FBF1F0DFF830170860B4F91D
S11308E03800012190FBF1F0DFF824170860B4F917
S11308F03A00012190FBF1F0DFF818170860B4F911
S11309003C00012190FBF1F0DFF80C170880B4F9EA
S11309103E00012190FBF1F0DFF8FC160880B4F9E9
S11309204000012190FBF1F0DFF8EC160880B4F9E7
S11309304200012190FBF1F0DFF8DC160880B4F9E5
S11309404400012190FBF1F0DFF8CC160880B4F9E3
S11309504600012190FBF1F0DFF8BC160880B4F9E1
S11309604800012190FBF1F0DFF8AC160880B4F9DF
S11309704A00012190FBF1F0DFF89C160880B4F9DD
S11309804C00012190FBF1F0DFF88C160880B4F9DB
S11309904E00012190FBF1F0DFF87C16088010BDB9
S11309A0704710B504002000FFF7FAFF2088DFF835
S11309B0E41508806088DFF8DC154880A088DFF83B
S11309C0D4158880E088DFF8CC15C8802089DFF84A
S11309D0C41508816089DFF8BC154881A089DFF857
S11309E0B4158881E089DFF8AC15C881208ADFF866
S11309F0A4150882608ADFF89C154882A08ADFF873
S1130A0094158882E08ADFF88C15C882208BDFF881
S1130A1084150883608BDFF87C154883A08BDFF88E
S1130A2074158883E08BDFF86C15C883208CDFF89D
S1130A3064150884608CDFF85C154884A08CDFF8AA
S1130A4054158884E08CDFF84C15C884208DDFF8B9
S1130A5044150885608DDFF83C154885A08DDFF8C6
S1130A6034158885E08DDFF82C15C885208EDFF8D5
S1130A7024150886608EDFF81C154886A08EDFF8E2
S1130A8014158886E08EDFF80C15C886208FDFF8F1
S1130A9004150887608FDFF8FC144887A08FDFF8FF
S1130AA0F4148887E08FDFF8EC14C887B4F84000AA
S1130AB0DFF8E014A1F84000B4F84200DFF8D414E1
S1130AC0A1F84200B4F84400DFF8C814A1F84400C7
S1130AD0B4F84600DFF8BC14A1F84600B4F84800A6
S1130AE0DFF8B014A1F84800B4F84A00DFF8A41401
S1130AF0A1F84A00B4F84C00DFF89814A1F84C00AF
S1130B00B4F84E00DFF88C14A1F84E00B4F850008D
S1130B10DFF88014A1F850000020DFF87814A1F861
S1130B205200DFF874040088DFF86814A1F8640048
S1130B30DFF868040088DFF85C14A1F86600DFF8C9
S1130B405C044088DFF84C14A1F86800DFF84C041A
S1130B508088DFF84014A1F86A00DFF84004C088F8
S1130B60DFF83014A1F86C00DFF830040089DFF8F6
S1130B702414A1F86E00DFF824044089DFF814146B
S1130B80A1F87000DFF814048089DFF80814A1F8D4
S1130B907200DFF80804C089DFF8F813A1F87400C4
S1130BA00020DFF8F013A1F8760000F0A5FF10BDD7
S1130BB080B5B0F950107B295FD00121018001215B
S1130BC04180012181800121C18001210181012114
S1130BD04181012181810121C181C8210182012139
S1130BE0418201218182A021C1820121018301214D
S1130BF04183012181830121C183012101840121D8
S1130C004184012181840121C184002101850021C5
S1130C104185002181850021C185002101860021B3
S1130C204186002181860021C1860021018700219F
S1130C304187002181870021C1870021A0F840104D
S1130C400021A0F842100021A0F844100021A0F8CF
S1130C5046100021A0F848100021A0F84A100021F5
S1130C60A0F84C100021A0F84E100021A0F852105A
S1130C707B21A0F85010FFF794FE01BD70B501244C
S1130C8000250026002001F02AF80023002200217C
S1130C900F2001F02DFCDFF8842302211E2001F037
S1130CA078F9002301220421202001F021FC0023F3
S1130CB006220621282001F01BFCFFE76DB2002D5F
S1130CC033D1FFF7BDFB060001F000FDDFF8141877
S1130CD00860DFF81008006884280CD08C2806D03F
S1130CE08E280CD0A92804D0AD2806D009E001260E
S1130CF007E0022605E0032603E0042601E00526BA
S1130D00FFE701F0E7FC76B2012ED7D00CD3032E17
S1130D1007D002D3042E01D006E0CFE7641C0125DE
S1130D20CCE70C240125C9E7C8E72000C0B270BD98
S1130D302DE9F04104000B25002600275FF0000890
S1130D40002000F0CCFFDFF8A0270021042001F0F0
S1130D5020F9FFE776B2002E47D14FFA88F8B8F1B0
S1130D60010F07D1DFF884270021042001F011F9D5
S1130D705FF00008FFF764FB070001F0A7FCDFF851
S1130D806417086001F0A6FCDFF85807006884289F
S1130D900CD08C2806D08E280CD0A92804D0AD28DD
S1130DA006D009E0012707E0022705E0032703E056
S1130DB0042701E00527FFE77FB2012FCAD013D330
S1130DC0032F08D003D3052F08D001D30CE0C1E7CB
S1130DD06D1C0126BEE76D1E0126BBE72000FFF750
S1130DE0E0FD5FF00108B5E7B4E72800C0B2BDE854
S1130DF0F0812DE9F04104000A25002600275FF068
S1130E000108002000F06BFFDFF8E42600210A202F
S1130E1001F0BFF8FFE776B2002E66D14FFA88F8EA
S1130E20B8F1000F14D0B4F952007B2805D157A2B1
S1130E300421322001F0ADF808E0B4F95200002892
S1130E4004D153A20421322001F0A3F85FF000087A
S1130E50FFF7F6FA070001F039FCDFF8881608609E
S1130E6001F038FCDFF87C06006884280CD08C285C
S1130E7006D08E280CD0A92804D0AD2806D009E0CD
S1130E80012707E0022705E0032703E0042701E028
S1130E900527FFE77FB2012FBDD025D3032F08D04C
S1130EA003D3052F08D001D31EE0B4E76D1C01263F
S1130EB0B1E76D1E0126AEE7B4F952007B2803D1D9
S1130EC00020A4F8520006E0B4F95200002802D130
S1130ED07B20A4F852002000FFF763FD2000FFF7F9
S1130EE000FC5FF0010896E795E72800C0B2BDE872
S1130EF0F08170B50C2400250026002000F0EFFEE0
S1130F00DFF8F0250021042001F043F8FFE76DB27B
S1130F10002D37D1FFF794FA060001F0D7FBDFF874
S1130F20C415086001F0D6FBDFF8B8050068842812
S1130F300CD08C2806D08E280CD0A92804D0AD283B
S1130F4006D009E0012607E0022605E0032603E0B7
S1130F50042601E00526FFE776B2012ED7D010D390
S1130F60032E08D003D3052E08D001D309E0CEE721
S1130F7001240125CBE7641E0125C8E700240125CF
S1130F80C5E7C4E72000C0B270BD00005945530056
S1130F904E4F20009006FF1FC60DFF1F000DFF1FC0
S1130FA03406FF1FA805FF1FAC05FF1F4005FF1FE8
S1130FB04405FF1FA60DFF1F4805FF1FA20DFF1FBD
S1130FC09A0DFF1F9C0DFF1FA40DFF1F8405FF1F1B
S1130FD08005FF1FB005FF1F8C05FF1F8805FF1F3D
S1130FE01406FF1F1806FF1FB20DFF1FB40DFF1FCD
S1130FF01C06FF1F2006FF1F2406FF1F2806FF1FD5
S11310003C06FF1F4006FF1F3806FF1F0406FF1F94
S11310106805FF1F6C05FF1FC80DFF1F64E000007B
S11310202DE9FA4F97B014000125012600275FF03F
S113103000085FF000091799B1F90010ADF800102D
S113104018990988ADF80210DDF88CA0BAF80010E0
S1131050ADF80410DDF894B0BBF80010ADF806103C
S1131060010002A801F0E8FC210007A801F0E4FC5B
S113107022990CA801F0E0FC249911A801F0DCFCF1
S1131080002000F02CFE02AA0021002000F081FFC5
S1131090BDF900200021502001F097F807AA022191
S11310A0002000F076FFBDF902200221502001F05B
S11310B08CF80CAA0421002000F06BFFBDF9042079
S11310C00421502001F081F811AA0621002000F02B
S11310D060FFBDF906200621502001F076F802A831
S11310E06DB2142115FB01F10844B0F11402681E1D
S11310F0C0B24100C9B2002000F09CFF269C0FE062
S1131100042502A86DB2142115FB01F10844B0F1C5
S11311101402681EC0B24100C9B2002000F08AFF68
S11311207FB2002F40F0C981FFF78AF9804601F0B1
S1131130CDFADFF8B013086001F0CCFADFF8A403AD
S1131140006884280ED08C2806D08E2810D0A928B8
S113115005D0AD2809D00EE05FF001080BE05FF088
S1131160020808E05FF0030805E05FF0040802E00D
S11311705FF00508FFE74FFA89F9B9F1000F70D164
S11311804FFA88F8B8F1010F09D069D3B8F1030F09
S11311903ED018D3B8F1050F40D03CD360E002A88C
S11311A06DB2142115FB01F10844B0F11402681E5C
S11311B0C0B24100C9B2002000F0EBFE6DB2022DB6
S11311C09EDB6D1E9DE702A86DB2142115FB01F193
S11311D00844B0F11402681EC0B24100C9B2002034
S11311E000F0D7FE6DB2042D01DA6D1C00E001257C
S11311F002A86DB2142115FB01F10844B0F11402E8
S1131200681EC0B24100C9B2002000F013FF87E796
S1131210641E012784E7641C012781E702A86DB2DC
S1131220142115FB01F10844B0F11402681EC0B288
S11312304100C9B2002000F0ACFE012633005BB2CD
S113124068466DB200EB450030F9022C681EC0B24E
S11312504100C9B2502001F02FF85FF001095FE7A7
S11312605EE74FFA89F9B9F1010F7FF459AF4FFAEC
S113127088F8B8F1010F38D0C0F01E81B8F1030F1F
S113128007D0C0F09680B8F1050F00F0F68016D3B1
S113129012E176B2022E01DB761E00E00526330051
S11312A05BB268466DB200EB450030F9022C681E53
S11312B0C0B24100C9B2502000F0FEFF30E776B260
S11312C0052E01DA761C00E0012633005BB2684685
S11312D06DB200EB450030F9022C681EC0B241002B
S11312E0C9B2502000F0E8FF1AE776B2012E07D009
S11312F04FD3032E23D013D3052E3CD02DD348E057
S113130068466DB200EB450030F8020C00F51C5045
S1131310103069466DB201EB450121F8020C38E04A
S113132068466DB200EB450030F8020C10F57A7097
S113133069466DB201EB450121F8020C29E06846CB
S11313406DB200EB450030F8020C643069466DB2B2
S113135001EB450121F8020C1BE068466DB200EB7D
S1131360450030F8020C0A3069466DB201EB4501C4
S113137021F8020C0DE068466DB200EB450030F830
S1131380020C401C69466DB201EB450121F8020CC8
S1131390FFE733005BB268466DB200EB450030F9FD
S11313A0022C681EC0B24100C9B2502000F084FF74
S11313B0B6E676B2012E07D04FD3032E23D013D333
S11313C0052E3CD02DD348E068466DB200EB4500B5
S11313D030F8020C42F21071401A69466DB201EB0A
S11313E0450121F8020C38E068466DB200EB450077
S11313F030F8020CB0F57A7069466DB201EB450124
S113140021F8020C29E068466DB200EB450030F883
S1131410020C643869466DB201EB450121F8020CF7
S11314201BE068466DB200EB450030F8020C0A3848
S113143069466DB201EB450121F8020C0DE06846E6
S11314406DB200EB450030F8020C401E69466DB2E7
S113145001EB450121F8020CFFE733005BB268465B
S11314606DB200EB450030F9022C681EC0B2410099
S1131470C9B2502000F020FF52E668466DB200EB7E
S1131480450030F9022C681EC0B24100C9B2502098
S113149000F09BFE02A86DB2142115FB01F1084473
S11314A0B0F11402681EC0B24100C9B2002000F0BD
S11314B0C1FD5FF0000933E632E6BDF8000017997C
S11314C00880BDF8020018990880BDF80400AAF845
S11314D00000BDF80600ABF800002000C0B219B04F
S11314E0BDE8F08F2C05FF1FFCDF00000CE00000BE
S11314F058DF00001CE0000080B5FFF7BFFB02BD11
S113150000B585B002210491811D0391DFF81C14FC
S11315100291011D0191DFF818140091831CDFF87A
S113152014240100DFF81004FFF77AFD05B000BDB4
S113153000B585B00321049110F10E010391DFF889
S1131540FC13029110F10C010191DFF8F4130091E6
S113155010F10A03DFF8EC2310F10801DFF8E803C7
S1131560FFF75EFD05B000BD00B585B00421049110
S113157010F116010391DFF8D413029110F1140154
S11315800191DFF8CC13009110F11203DFF8C423AA
S113159010F11001DFF8C003FFF742FD05B000BDF4
S11315A000B585B00521049110F11E010391DFF807
S11315B0AC13029110F11C010191DFF8A413009106
S11315C010F11A03DFF89C2310F11801DFF89803D7
S11315D0FFF726FD05B000BD00B585B006210491D6
S11315E010F126010391DFF88413029110F1240114
S11315F00191DFF87C13009110F12203DFF87423CA
S113160010F12001DFF87003FFF70AFD05B000BDFB
S113161000B585B00721049110F12E010391DFF884
S11316205C13029110F12C010191DFF85413009125
S113163010F12A03DFF84C2310F12801DFF84803E6
S1131640FFF7EEFC05B000BD00B585B0082104919C
S113165010F136010391DFF83413029110F13401D3
S11316600191DFF82C13009110F13203DFF82423E9
S113167010F13001DFF82003FFF7D2FC05B000BD04
S113168000B585B00921049110F13E010391DFF802
S11316900C13029110F13C010191C049009110F129
S11316A03A03BF4A10F13801BE48FFF7B9FC05B050
S11316B000BD80B5FFF79DFB02BD80B5FFF738FB89
S11316C002BD80B5FFF715FC02BD00B595B0012041
S11316D06846FEF7E6FE6846FFF76AFA012001E075
S11316E0FFF70AFFC0B2002841D0C0B20128F7D0EA
S11316F03CD3032813D00ED3052818D013D30728BE
S11317001DD018D3092822D01DD30B2827D022D3CB
S11317100C2828D02AE06846FFF7F2FEE2E7684684
S1131720FFF706FFDEE76846FFF71EFFDAE76846C5
S1131730FFF736FFD6E76846FFF74EFFD2E7684665
S1131740FFF766FFCEE76846FFF77EFFCAE7684605
S1131750FFF796FFC6E76846FFF7ABFFC2E76846A8
S1131760FFF7ABFFBEE7FFF7ACFFBBE7BAE700202C
S113177000F0B5FA8C486946542201F06FF96846C6
S1131780FEF7AFFF15B000BD80B58748FEF789FEB0
S11317908548FFF70DFA8448FEF7A3FF01BD10B595
S11317A0814C824800682080814801685FF07E5047
S11317B001F080F901F0EAF960807E4801685FF089
S11317C07E5001F077F901F0E1F9A0807A480168D0
S11317D05FF07E5001F06EF901F0D8F9E0807748AF
S11317E001685FF07E5001F065F901F0CFF92081C6
S11317F07348B0F900006081724801685FF07E5060
S113180001F058F901F0C2F9A0816F48B0F9000065
S1131810E0816E48008820826D48B0F90000608243
S11318206C48B0F90000A0826B480068E0826B4805
S1131830006820836A4801685FF07E5001F03AF93D
S113184001F0A4F9608367480068A08366480068D3
S1131850E083664801685FF07E5001F02BF901F0E7
S113186095F92084624801685FF07E5001F022F906
S113187001F08CF960845F480088A0845E48008889
S1131880E0845E48006801F081F920855C480068C6
S113189001F07CF960855B48006801F077F9A08568
S11318A05948006801F072F9E0855848006801F071
S11318B06DF920865648006801F068F9608655483D
S11318C00068A08654480068E08654480068208771
S11318D053480068608753480088A08751480088AF
S11318E0E08750480088A4F840004E480088A4F8D7
S11318F042004C480088A4F844004A480088A4F8F0
S1131900460048480088A4F8480046480088A4F8DF
S11319104A0044480088A4F84C0042480088A4F8CF
S11319204E002148FFF73DF810BD00001CE1000007
S113193014E100000CE1000004E100007CE0000080
S11319402CE1000070E0000024E100003CE1000014
S113195094E0000088E0000034E100005CE1000055
S113196054E100004CE1000044E100007CE100008F
S113197074E100006CE1000064E100009CE10000FF
S113198094E100008CE1000084E10000BCE100006F
S1131990B4E10000ACE10000A4E10000D4E10000E7
S11319A0CCE10000C4E10000100DFF1F3406FF1F4E
S11319B0A805FF1FAC05FF1F4005FF1F4405FF1FBF
S11319C0A60DFF1F4805FF1FA20DFF1F9A0DFF1F45
S11319D09C0DFF1FA40DFF1F8405FF1F8005FF1F23
S11319E0B005FF1F8C05FF1F8805FF1F1406FF1F8E
S11319F01806FF1FB20DFF1FB40DFF1F1C06FF1FAB
S1131A002006FF1F2406FF1F2806FF1F3C06FF1F9A
S1131A104006FF1F3806FF1F0406FF1F6805FF1F4F
S1131A206C05FF1FC80DFF1F80B500230022012194
S1131A30244801F0CDF8002300220221214801F0BE
S1131A40C7F8002300225FF400211F4801F0C0F80A
S1131A50002300225FF480211B4801F0B9F8002321
S1131A6000224FF40051184801F0B2F801BD80B5CE
S1131A700D21154801F093F9002801D1042020E03C
S1131A800121104801F08BF9002801D1012018E050
S1131A9013210D4801F083F9002801D1022010E040
S1131AA01221094801F07BF9002801D1032008E044
S1131AB00021044801F073F9002801D1052000E059
S1131AC0002002BDC0F00F4080F00F4080B501F04F
S1131AD0BFF901BD002000215FF4FF20002107E0D1
S1131AE0C9B230F811200A4BC9B223F81120491C9D
S1131AF0C9B26429F4DB704780B55FF4FF2001F0BC
S1131B00D4F9C82202495FF4FF2001F018FA01BD9C
S1131B109006FF1F002840F10980F446404200F07F
S1131B2005F850F000406047002800BF0AD0B0FA22
S1131B3080F18840D1F19D01C905020672F100428D
S1131B4041EB10207047000080B5DFF884190020B5
S1131B5005E000224A7001228A70C91C401CC0B2F0
S1131B600428F6DBDFF86C1984B06846142200F010
S1131B7075FF0FBC01F06EF800220721DFF8580949
S1131B8001F001F9DFF8541984B06846142200F01A
S1131B9065FF0FBC01F05EF800220521DFF838096B
S1131BA001F0F1F8DFF8381984B06846142200F027
S1131BB055FF0FBC01F04EF800220121DFF818098F
S1131BC001F0E1F8DFF81C1984B06846142200F033
S1131BD045FF0FBC01F03EF800220321DFF8F808AE
S1131BE001F0D1F801BD000038B504000825012238
S1131BF00121DFF8E40801F0C6F800220721DFF82C
S1131C00D80801F0C0F813E000220521DFF8C80865
S1131C1001F0B9F801220721DFF8BC0801F0B3F89C
S1131C2000BF00220721DFF8B00801F0ACF864001F
S1131C302800451EC0B2002808D02006E4D50122A1
S1131C400521DFF8940801F09EF8E3E731BD0000B8
S1131C5038B50400082500220121DFF87C0801F0D2
S1131C6092F800220721DFF8700801F08CF813E0E5
S1131C7000220521DFF8600801F085F80122072120
S1131C80DFF8540801F07FF800BF00220721DFF8D5
S1131C90480801F078F864002800451EC0B2002806
S1131CA008D02006E4D501220521DFF82C0801F034
S1131CB06AF8E3E731BD10B50400B1F15000C0B2D9
S1131CC0FFF7C6FF2000C0B2000950F01000C0B2F8
S1131CD0FFF7BEFF14F00F00FFF7BAFF10BD70B599
S1131CE00400002508E02000C0B2FFF77DFF761C49
S1131CF0F6B2802EF7DB6D1CEDB2082D01DA00265A
S1131D00F6E770BD80B550F0A600C0B2FFF7A0FFA3
S1131D1001BD80B550F0A400C0B2FFF799FF01BD2A
S1131D2010B50400DB20FFF793FF2000C0B2FFF7DB
S1131D308FFF10BD10B50400D920FFF789FF2000E4
S1131D40C0B2FFF785FF10BD10B504008120FFF776
S1131D507FFF2000C0B2FFF77BFF10BD10B5040069
S1131D60DA20FFF775FF54F00200C0B2FFF770FFEE
S1131D7010BD80B550F0C000C0B2FFF769FF01BDCF
S1131D8080B550F0A000C0B2FFF762FF01BD10B5EE
S1131D9004002020FFF75CFF2000C0B2FFF758FFCB
S1131DA010BD10B504008D20FFF752FF54F0100051
S1131DB0C0B2FFF74DFF10BD80B550F04000C0B277
S1131DC0FFF746FF01BD10B50400D320FFF740FF25
S1131DD02000C0B2FFF73CFF10BD10B50400A820DE
S1131DE0FFF736FF2000C0B2FFF732FF10BD10B579
S1131DF00400D520FFF72CFF2000C0B2FFF728FF16
S1131E0010BD80B550F0AE00C0B2FFF721FF01BD98
S1131E1038B51400E4B2C0B27B2801DB0020491CB1
S1131E20C9B2C0B2FFF747FF00250BE0DFF8B806E0
S1131E30E4B2062101FB04F10844EDB2405DFFF772
S1131E40D3FE6D1CEDB2062DF0DB31BDF8B50600F6
S1131E500F001500EDB2F6B27B2E01DB00267F1CCD
S1131E603900C9B23000C0B2FFF725FF002409E0F1
S1131E70DFF87806EDB229010844E4B2005DFFF70B
S1131E80B3FE641CE4B2082CF2DB791CC9B2300046
S1131E90C0B2FFF710FF082409E0DFF85006EDB2E6
S1131EA029010844E4B2005DFFF79EFE641CE4B21D
S1131EB0102CF2DBF1BDF8B504000D001700FFB2E1
S1131EC0E4B27B2C01DB00246D1C2900C9B2200084
S1131ED0C0B2FFF7F0FE00260BE0DFF81006FFB2F9
S1131EE039010844F6B2805DC043C0B2FFF77CFEFE
S1131EF0761CF6B2082EF0DB691CC9B22000C0B211
S1131F00FFF7D9FE08260BE0DFF8E005FFB2390140
S1131F100844F6B2805DC043C0B2FFF765FE761C8C
S1131F20F6B2102EF0DBF1BD2DE9F84304000D00EC
S1131F301600002716E0DFF8B0055FFA89F90621DC
S1131F4001FB09F108445FFA88F810F80800FFF76C
S1131F504BFE18F101085FFA88F8B8F1060FEADBC6
S1131F60A41D7F1CFFB2F057002810D0FFB216F852
S1131F700790E4B27B2C01DB00246D1C2900C9B25C
S1131F802000C0B2FFF797FE5FF00008E3E7BDE86A
S1131F90F1832DE9F84304000D001600002715E035
S1131FA0DFF848055FFA89F95FEA091108445FFA26
S1131FB088F810F80800FFF717FE18F101085FFA17
S1131FC088F8B8F1100FEBDB08347F1CFFB2F05730
S1131FD000282DD0FFB216F80790E4B2792C01DB6B
S1131FE00024AD1C2900C9B22000C0B2FFF763FE73
S1131FF05FF000080EE0DFF8F4045FFA89F95FEAA5
S1132000091108445FFA88F810F80800FFF7ECFD9E
S113201018F101085FFA88F8B8F1080FEBDB691CC6
S1132020C9B22000C0B2FFF746FE5FF00808C6E759
S1132030BDE8F1832DE9F84304000D0016000027E4
S113204017E0DFF8A8045FFA89F95FEA0911084488
S11320505FFA88F810F80800C043C0B2FFF7C4FD67
S113206018F101085FFA88F8B8F1100FE9DB0834B9
S11320707F1CFFB2F05700282FD0FFB216F807904C
S1132080E4B2792C01DB0024AD1C2900C9B2200084
S1132090C0B2FFF710FE5FF0000810E0DFF84C0458
S11320A05FFA89F95FEA091108445FFA88F810F8C1
S11320B00800C043C0B2FFF797FD18F101085FFAAA
S11320C088F8B8F1080FE9DB691CC9B22000C0B276
S11320D0FFF7F1FD5FF00808C4E7BDE8F1832DE9DF
S11320E0F84304000D0017003FB2002F09D52D223C
S11320F02900C9B22000C0B2FFF78AFE3FB27F4276
S113210007E02B222900C9B22000C0B2FFF780FEED
S1132110BFB2BFB242F2107097FBF0F0BFB242F20E
S1132120107197FBF1F201FB12714FF47A7291FB7B
S1132130F2F6BFB24FF47A7197FBF1F201FB127120
S1132140642291FBF2F8BFB2642197FBF1F201FB28
S113215012710A2291FBF2F9BFB20A2197FBF1F244
S113216001FB127710F1300252B22900C9B2A01D4E
S1132170C0B2FFF74DFE16F1300252B22900C9B2C7
S113218014F10C00C0B2FFF743FE18F1300252B252
S11321902900C9B214F11200C0B2FFF739FE19F1D7
S11321A0300252B22900C9B214F11800C0B2FFF7CC
S11321B02FFE17F1300252B22900C9B214F11E00E9
S11321C0C0B2FFF725FEBDE8F1832DE9F843040012
S11321D00D0017003FB2002F09D52D222900C9B2E6
S11321E02000C0B2FFF732FE3FB27F4207E02B224D
S11321F02900C9B22000C0B2FFF728FEBFB2BFB2A7
S113220042F2107097FBF0F0BFB242F2107197FBEC
S1132210F1F201FB12714FF47A7291FBF2F6BFB244
S11322204FF47A7197FBF1F201FB1271642291FB76
S1132230F2F8BFB2642197FBF1F201FB12710A229A
S113224091FBF2F9BFB20A2197FBF1F201FB12777D
S113225010F1300252B22900C9B214F10800C0B220
S1132260FFF7F4FD16F1300252B22900C9B214F19D
S11322701000C0B2FFF7EAFD18F1300252B2290093
S1132280C9B214F11800C0B2FFF7E0FD19F1300231
S113229052B22900C9B214F12000C0B2FFF7D6FD32
S11322A017F1300252B22900C9B214F12800C0B2A9
S11322B0FFF7CCFDBDE8F1832DE9F84F04000D00D4
S11322C093461E000FFA8BFBBBF1000F0BD52D229A
S11322D02900C9B22000C0B2FFF7B8FD0FFA8BFB8A
S11322E0DBF1000B08E02B222900C9B22000C0B2A8
S11322F0FFF7ACFD1FFA8BFB1FFA8BFB42F2107049
S11323009BFBF0F71FFA8BFB42F210709BFBF0F182
S113231000FB11B04FF47A7190FBF1F81FFA8BFBBC
S11323204FF47A709BFBF0F100FB11B0642190FB39
S1132330F1F91FFA8BFB64209BFBF0F100FB11B059
S11323400A2190FBF1FA1FFA8BFB0A209BFBF0F1A8
S113235000FB11BB17F1300252B22900C9B214F1CB
S11323600800C0B2FFF772FD18F1300252B2290022
S1132370C9B214F11000C0B2FFF768FD19F13002C0
S113238052B22900C9B214F11800C0B2FFF75EFDC1
S11323901AF1300252B22900C9B214F12000C0B2BD
S11323A0FFF754FD1BF1300252B22900C9B214F1F7
S11323B02800C0B2FFF74AFD76B2012E07D03DD304
S11323C0032E1AD00ED3052E2DD021D336E017F1CB
S11323D0300252B22900C9B214F10800C0B2FFF7AA
S11323E06AFD2BE018F1300252B22900C9B214F18F
S11323F01000C0B2FFF75FFD20E019F1300252B2C5
S11324002900C9B214F11800C0B2FFF754FD15E059
S11324101AF1300252B22900C9B214F12000C0B23C
S1132420FFF749FD0AE01BF1300252B22900C9B29C
S113243014F12800C0B2FFF73EFDFFE7BDE8F18FBD
S113244080B50020FFF780FB002001E000BF401CA6
S1132450C0B26428FADB012203211F4800F093FC78
S11324600020FFF7CEFC8020FFF7C1FC3F20FFF7E0
S1132470B4FC0020FFF7A7FC0020FFF79DFC04201C
S1132480FFF78FFC0020FFF782FC0120FFF778FCA8
S11324900820FFF76EFC1020FFF760FCCF20FFF749
S11324A053FCF120FFF746FC4020FFF739FC0020E5
S11324B0FFF72FFC0020FFF725FC0120FFF7A1FC0C
S11324C00020FFF70CFC00210020FFF7F4FB01BD06
S11324D0480BFF1F2404FF1F00F10F403804FF1FA7
S11324E04C04FF1F6004FF1F00B40000C4980000E8
S11324F02DE9F84304000D005FF000085FF00009C7
S1132500002700270026D2B2002A0BD0022A0FD0BF
S11325100BD3042A12D00ED3062A15D011D3072ABE
S113252015D017E00027052614E00627092611E038
S11325300A270B260EE00C270D260BE00E270F268C
S113254008E01027112605E01227142602E01527BB
S11325501826FFE7DBB2002B41D114E059485FFA9B
S113256089F95FEA491108445FFA88F810F808000D
S1132570FFF73AFB18F101085FFA88F8B8F1200F69
S1132580ECDB10347F1C3000390080B289B2884201
S11325906ED3B9462900C9B22000C0B2FFF78BFB45
S11325A05FF000080DE047485FFA89F95FEA4911D6
S11325B008445FFA88F810F80800FFF715FB18F1D3
S11325C001085FFA88F8B8F1100FECDB691CC9B296
S11325D02000C0B2FFF76FFB5FF01008CCE7DBB25E
S11325E0012B45D116E037485FFA89F95FEA4911B2
S11325F008445FFA88F810F80800C043C0B2FFF737
S1132600F3FA18F101085FFA88F8B8F1200FEADB51
S113261010347F1C3000390080B289B2884227D33D
S1132620B9462900C9B22000C0B2FFF744FB5FF0ED
S113263000080FE023485FFA89F95FEA491108446A
S11326405FFA88F810F80800C043C0B2FFF7CCFA6C
S113265018F101085FFA88F8B8F1100FEADB691C79
S1132660C9B22000C0B2FFF726FB5FF01008CAE72A
S1132670BDE8F18338B50024002552B2012A01D106
S11326807D2505E052B2002A01D1782500E03F25DE
S1132690C0B27B2801DB0020491CC9B2C0B2FFF7DD
S11326A00AFB00240AE00848EDB2062101FB05F10B
S11326B00844E4B2005DFFF797FA641CE4B2062C08
S11326C0F1DB31BDE0B0000000B40000DFF81C0312
S11326D0007970470020DFF8141308700020DFF839
S11326E00C1348800020DFF8041308710020DFF881
S11326F0FC1248710020DFF8F41288717047DFF88B
S1132700F0020068DFF8EC120860DFF8E802006805
S1132710DFF8E4120968401ADFF8E0120860DFF815
S1132720E0020078002815D0012824D0032852D0D4
S1132730042861D0052800F0AB80062800F0EB8067
S1132740072800F01D81082800F02B81092800F0DB
S1132750358149E1A94800685638092806D2A548B8
S11327600068A54908600120A5490870A1480068CF
S1132770A149086038E1A1480068293809280DD228
S11327809C4800689C49086000209E49087001200C
S11327909649887103209A4908701BE0974800689D
S11327A01538042813D29348006897490968401AD9
S11327B0A0F2FF10092806D20920914908700020D0
S11327C09249087006E000208D49087002E000205C
S11327D08B49087008E189480068801E092807D2DF
S11327E0844800688449086004208549087002E030
S11327F0002083490870F7E080480068801E09289B
S11328001ED27C4800687C4908608148006820F03A
S113281000407F4908607E48006840087C490860A1
S113282003207749087077480078401C7549087080
S11328307448007820282AD105207149087026E0C0
S11328406E4800680D3809281ED26A4800686A4933
S113285008606F48006850F000406D4908606C489B
S1132860006840086A4908600320654908706548A3
S11328700078401C6349087062480078202806D11B
S113288005205F49087002E000205D490870ABE054
S11328906048007800282AD15D48006810F07F4025
S11328A0B0F17F4F01D1012000E0002058490968B0
S11328B0090211F07F41C0B290EA010F12D04E48D4
S11328C00068514908600120484908705048006870
S11328D0464948804E480068000C4449087101206C
S11328E0424988714A4800684B4908600FE04848EB
S11328F0006849490968884206D13F48006842494E
S1132900086001203949887100204249087000207C
S11329103B49087068E03D48007809280DDA3748DB
S11329200068A0F2C930092807D232480068324949
S1132930086007203249087021E0344800780928EB
S113294011D12E480068A0F25920B0F5B77F0AD8FB
S1132950284800682849086001202E490870002092
S1132960274908700BE025480068B0F5167F06D3A8
S1132970204800682049086000202149087033E09D
S11329801E4800685638092807D21A4800681A49B0
S1132990086008201A49087002E0002018490870ED
S11329A022E0164800681538042803D20920144987
S11329B0087002E000201249087015E00D48006814
S11329C00D49086011480078401C104908700F48F0
S11329D00078052802D101200449487101200349E7
S11329E0887106200649087070470000D00AFF1F4E
S11329F01C05FF1FDC0AFF1FD80AFF1FE00AFF1F88
S1132A00EE0DFF1FF10DFF1FE40AFF1FF00DFF1F66
S1132A10E80AFF1FEF0DFF1FEC0AFF1F002100282B
S1132A2002D1002007E0491C0200501C92F900204A
S1132A30002AF8D10800704702000B0000280CD0CF
S1132A4000290AD003E0197811705B1C521C93F919
S1132A5000100029F7D1002111707047103A07D3F4
S1132A6030B4B1E83810103AA0E83810F9D230BCCC
S1132A70530724BFB1E80810A0E8081044BF51F878
S1132A80043B40F8043BD20724BF31F8022B20F862
S1132A90022B44BF0B7803707047083A07D3B1E8A0
S1132AA00810083A40F8043B40F804CBF7D2530727
S1132AB0E4E70000FF2212EAD05C1DBF12EAD15302
S1132AC0944593422BE09C44D30780EA01021A40C8
S1132AD043EA002043EA0121A1FB0030410038BF52
S1132AE040007CF17F010BDBFE294ADA5B0842EAF5
S1132AF0C15153EA006373F1004C51EB102070474D
S1132B00D1F1080CDCF120012FDB5B0810FA01F194
S1132B100B4373F1004120FA0CF050417047944587
S1132B201CBF02EAD153934280EA010202F0004240
S1132B301DD0400019D0490017D05BB9634514D0AB
S1132B400902B1FA81F39940BCEB030CC00140F0D7
S1132B500040C1E70002B0FA80FC10FA0CF0B3EBBD
S1132B600C0CC90141F00041B6E710007047400069
S1132B700AD0490008D010F1807F94BF11F1807F02
S1132B8002E042F0FF407047D04370474100090E15
S1132B907F3915D4D1F11F0114D4400007D2C001EC
S1132BA040F00040C84048BF6FF000407047C0018B
S1132BB040F00040C8404CBF4FF0004040427047D6
S1132BC00020704700424FF0004058BFC043704798
S1132BD080B5D2B2002A02D0012A17D02CE0174ABD
S1132BE010601648416000201449087300201349FE
S1132BF04873002011498860104984B06846142243
S1132C00FFF72CFF0FBC00F025F815E00B4A10600D
S1132C100A484160012009490873084843730020A9
S1132C2006498860054984B068461422FFF716FFF8
S1132C300FBC00F00FF8FFE701BD00BFA407FF1FA2
S1132C40012110F01F0291406E4A40B2400942F83F
S1132C50201070470FB42DE9F8430A9850F480749B
S1132C60089F099D9DF82C809DF82D900C9E664828
S1132C70874203D33521654800F0E0F95FFA88F80C
S1132C80B8F1020F03DB3621604800F0D7F95FFA90
S1132C9089F9B9F1020F03DB37215C4800F0CEF962
S1132CA05B48874210D15B4900205FFA88F8B8F18D
S1132CB0010F25D17A692A437A615FFA89F9B9F15A
S1132CC0010F1BD17D601EE05348874202D1534956
S1132CD00120EAE75248874202D152490220E4E740
S1132CE05148874202D151490320DEE750488742C8
S1132CF002D150490420D8E7002019E0BD6002E069
S1132D007A69AA437A61002207E02B00D340DB07EB
S1132D1002D5D2B241F82240521CD2B2202AF4DBAE
S1132D203100002903D04449C0B241F82060012099
S1132D30BDE8F2035DF814FB0FB410B5029C3248F1
S1132D40844203D38A21314800F078F93048844220
S1132D5001D100200FE03048844201D101200AE073
S1132D602F48844201D1022005E02F48844201D13A
S1132D70032000E00420573040B2FFF761FF012038
S1132D8010BC5DF814FB10B4036801248C40A34309
S1132D90D2B212FA01F11943016010BC7047006904
S1132DA0C84010F00100704780B523480068804790
S1132DB05FF0FF302149086001BD80B51E484068BE
S1132DC080475FF0FF301E49086001BD80B51A4896
S1132DD0806880475FF0FF301A49086001BD80B504
S1132DE01548C06880475FF0FF301749086001BD8F
S1132DF080B51148006980475FF0FF3013490860CF
S1132E0001BD000000E100E001F10F40C0D8000066
S1132E1000F00F400090044040F00F4000A0044038
S1132E2080F00F4000B00440C0F00F4000C00440E8
S1132E3000F10F4000D00440DC09FF1FA0900440C3
S1132E40A0A00440A0B00440A0C00440A0D004400E
S1132E506F480078800606D56D48007850F0200051
S1132E606B49087014E06A480078C00606D56848C3
S1132E70007850F010006649087009E06448007852
S1132E80400605D56248007850F04000604908705B
S1132E906048006830F010005E4908605E480068D1
S1132EA030F010005C490860704701000020584A67
S1132EB012781206FBD50922584B1A700A0C584B8B
S1132EC01A700A0A574B1A70574A117050490978F8
S1132ED051F080014E4A11704D4909780906FBD51D
S1132EE04B490978890608D54949097851F02001E8
S1132EF0474A117050F001001FE045490978C9069E
S1132F0008D54349097851F01001414A117050F035
S1132F10020012E03E490978490608D53C4909787F
S1132F2051F040013A4A117050F0080005E0384968
S1132F300978C90701D550F00400C0B2704730B415
S1132F4013000022002B01D111205FE05B1E9B08BF
S1132F505B1C2F4C24782406FBD5002B54D0D2B212
S1132F60002A51D106242D4D2C70040C2C4D2C70AC
S1132F70040A2C4D2C702C4C2070CC782B4D2C70CA
S1132F808C782B4D2C704C782A4D2C700C782A4D53
S1132F902C701F4C247854F080041D4D2C701C4C54
S1132FA024782406FBD51A4C2478A40608D5184C9A
S1132FB0247854F02004164D2C7052F001021FE0C6
S1132FC0134C2478E40608D5114C247854F01004EA
S1132FD00F4D2C7052F0020212E00D4C247864065E
S1132FE008D50B4C247854F04004094D2C7052F051
S1132FF0080205E0064C2478E40701D552F00402E7
S11330005B1E091D001DA8E71000C0B230BC70474C
S11330100000024004F0014008F0014007000240B3
S11330200600024005000240040002400B0002407A
S11330300A000240090002400800024080B50A006C
S11330400100024800F061FAFEE700BFE4DD000081
S113305010B50C001168012902D0022904D009E03E
S113306040B25168884705E0916808709068401C38
S11330709060FFE72068401C206010BD30B41C0045
S1133080002300250570401C002A19D00968002976
S11330900AD1302101705B1C180030BC70473035F8
S11330A011000570401C5B1C0029F5D091FBF4F263
S11330B004FB1215002DF2D5E94311F13105EFE7B8
S11330C00968002908D1302101705B1CE4E7373519
S11330D011000570401C5B1C0029DDD0B1FBF4F22B
S11330E004FB12150A2DF2D23035F1E7F8B50400CD
S11330F00D0016001F0005E03A0031003020FFF7F4
S1133100A7FF641CAC42F7DBF1BDF8B504000D0069
S113311016001F0005E03A0031002020FFF798FF59
S1133120641CAC42F7DBF1BD2DE9F04F8DB0050016
S11331309046002000900C0004E02A006946FFF746
S113314087FF641C94F90000002800F0DA81252828
S113315011D00A2804D02A006946FFF779FF09E054
S11331602A0069460D20FFF773FF2A0069460A20EA
S1133170FFF76EFFE5E70026002101E056F00106A7
S113318000291CD1641C94F9000020280BD02328AA
S11331900FD02B2804D02D28F0D0302806D00BE0F7
S11331A056F00206ECE756F00406E9E756F0080686
S11331B0E6E756F01006E3E7641E0121E0E7002786
S11331C0002104E00A2202FB0700B0F130070029C5
S11331D009D1641C94F900000200303A092AF1D99B
S11331E0641E0121F3E7641C94F900002E280CD11D
S11331F00021FFE7002909D1641C94F9000030384C
S11332000928F7D9641E0121F4E7641E641C94F9AB
S113321000004C2806D0682802D06C2801D002E0B7
S113322002E001E000E0641E641C94F90000010067
S1133230582976D0622900F0D680632900F02781CE
S1133240642913D0692911D06E2900F053816F29A4
S113325000F0BC80702900F0D380732900F0218134
S1133260752900F0DA8078295BD066E7D8F8000089
S113327018F1040803900A23012203A904A8FFF704
S1133280FDFE814604A8484402900398002804D512
S11332905FF02D0A19F101090FE0B00704D55FF0C2
S11332A02B0A19F1010908E0700704D55FF0200A20
S11332B019F1010901E05FF0000A5FF0000B30072B
S11332C011D5BAF1000F04D02A0069465046FFF721
S11332D0BFFE5FF0010B2B006A4639004846FFF73A
S11332E005FFB94611E0F0070FD42B006A463900F8
S11332F04846FFF70AFFBAF1000F04D02A006946D6
S11333005046FFF7A5FE5FF0010BBBF1000F07D19C
S1133310BAF1000F04D02A0069465046FFF798FE20
S1133320A7E0D8F8000018F1040801901023002247
S113333001A904A8FFF7A2FE814604A8484402900C
S11333405FF0000B300715D5F0060BD52A0069464F
S11333503020FFF77DFE2A0069467820FFF778FECB
S11333605FF0010B2B006A4639004846FFF7BEFEAA
S1133370B94619E0F00717D4F00601D519F102098E
S11333802B006A4639004846FFF7BFFEF0060BD50E
S11333902A0069463020FFF75BFE2A006946782040
S11333A0FFF756FE5FF0010BF0060ED5BBF1000FE0
S11333B00BD12A0069463020FFF74AFE2A006946ED
S11333C07820FFF745FE19F1020952E0D8F8000011
S11333D018F1040801900823002201A904A8FFF7AA
S11333E04DFE814625E0D8F8000018F1040801904C
S11333F00223002201A904A8FFF740FE814618E039
S1133400D8F8000018F1040801901023002201A943
S113341004A8FFF733FE81460BE0D8F8000018F14A
S1133420040801900A23002201A904A8FFF726FE3C
S1133430814604A848440290300707D52B006A4609
S113344039004846FFF752FEB94612E0F00710D49F
S11334502B006A4639004846FFF757FE09E02A0068
S11334606946029890F90000FFF7F2FD0298401EA9
S11334700290029890F900000028F0D1F00705D5D9
S11334802B006A4639004846FFF73FFE59E6D8F854
S1133490000018F1040840B22A006946FFF7D8FD7D
S11334A04FE6D8F800A018F10408BAF1000F20D0B4
S11334B05046FFF7B3FA8146F0070ED42B006A4654
S11334C039004846FFF721FE07E02A0069469AF9C9
S11334D00000FFF7BDFD1AF1010A9AF90000002867
S11334E0F3D1F00705D52B006A4639004846FFF7AB
S11334F00CFE26E6D8F8000018F1040800990160D3
S11335001FE600980DB0BDE8F08F0EB400B584B08E
S1133510012100910449019105AA01006846FFF7C1
S113352003FE04B05DF810FB99DF00000CB4E0B5B5
S113353002000020002A09D002200090029204AA6E
S11335406846FFF7F1FD0021029A11700EBC5DF888
S11335500CFB0000F8B5DFF89808B0F90200DFF8BA
S11335609018B1F90610DFF88828B2F90060DFF886
S11335708028B2F90870DFF87828B2F90420DFF85F
S1133580003D1B78002B2ED112B2A2F29112C72A51
S113359029D200B200FA81F0B0F5AF7F23DD3FB24B
S11335A007FA86F0B0F5FA7F1DDD3FB207FA86F020
S11335B001F0B4F85FF06632DFF8383801F0C6F88D
S11335C002000B0014001D0036B23FB2F01B01F0E4
S11335D0A5F822002B0001F08BF904D20120DFF8BA
S11335E0A01C087008E03FB207FA86F01E2803DA30
S11335F00020DFF88C1C0870DFF8840C0078F2BD22
S11336002DE9F84FDFF8E807B0F90240DFF8E007EA
S1133610B0F90650DFF8D807B0F90060DFF8D0073A
S1133620B0F90880DFF8C807B0F90470DFF8440C7B
S1133630B0F90000B0F5C87F26DDDFF83C0CB0F926
S11336400000B0F52F7F1FDDDFF8300C0088401C30
S1133650DFF8281C0880DFF82C0C0078002836D10D
S1133660DFF8180C0088062831DB0120DFF8141C71
S11336700870DFF8140C0068DFF8101C08600020E4
S1133680DFF8F81B088022E0DFF8080C0078002837
S113369004D00020DFF8E41B088018E0DFF8EC0B0E
S11336A00068DFF8E41B0968884208DA0020DFF8C4
S11336B0CC1B08800020DFF8CC1B087007E000203A
S11336C0DFF8B81B08800020DFF8B81B0870DFF8AB
S11336D0C40B0078002840F0D3803FB2B7F5BE7F1A
S11336E040F3CA802DB205FA84F0B0F5F07F40F3C0
S11336F0C3803FB2380001F011F85FF06632DFF8A2
S1133700903B01F023F802000B0092469B4624B242
S1133710200001F003F852465B4601F0E9F817D3A4
S11337203FB2380000F0FAFF5FF06632DFF8603B2A
S113373001F00CF802000B0092469B462DB22800C3
S113374000F0ECFF52465B4601F0D2F880F0948022
S11337502DB205FA84F000F0E1FF02000B0092465E
S11337609B463FB2380000F0D9FF5FF03332DFF8F8
S1133770283B00F0EBFF52465B4601F0B9F87BD2E0
S11337800FFA88F808FA86F06538B0F5F97F73D82F
S11337902DB205FA84F000F0C1FFDFF8002BDFF84A
S11337A0003B00F0D3FF02000B0092469B4624B27C
S11337B02DB2601B00F0B2FF52465B4601F098F850
S11337C001D2012000E00020C0B200F0B1FF31F0CE
S11337D000410022002301F0A3F84DD0032018FB80
S11337E000F036B2B0421FDA36B2652E1CDB02207E
S11337F0DFF8B01A08700120DFF8981A0870DFF8B3
S1133800A82ADFF8A81ADFF8A80A006801F098F8D7
S113381090F00040DFF89C1A0860DFF86C0A00683A
S1133820DFF8941A086027E0032016FB00F00FFA73
S113383088F8404520DA0FFA88F8B8F1650F1BDBE9
S11338400120DFF8601A08700120DFF8481A0870B8
S1133850DFF8542ADFF8541ADFF8540A006801F03C
S11338606FF890F00040DFF84C1A0860DFF8180A8F
S11338700068DFF8441A08600020DFF8401A087076
S1133880DFF8100A0078012862D10FFA88F808FAE4
S113389086F0C82803DA0120DFF8201A08703FB246
S11338A040F28B20874244DB2DB205FA84F0B0F558
S11338B0347F3EDDDFF8040A0078012839D1DFF8CF
S11338C0C8090068DFF8F0190968401A292830DBB4
S11338D0DFF8D0090078022812D10220DFF8C419D9
S11338E008700220DFF8AC190870DFF89C09006842
S11338F0DFF8C41908600120DFF8C41908706CE20D
S1133900DFF8A0090078012840F067820120DFF881
S1133910941908700220DFF87C190870DFF8680930
S11339200068DFF8941908600120DFF89419087022
S113393053E2DFF854090068DFF87C190968401A7B
S1133940C928C0F24A820020DFF84819087044E20E
S1133950DFF84009007802283DD13FB2B7F5C87FAF
S113396080F23B82DFF84C09006801F049F931F03C
S113397000410122DFF84C3901F06AF900F22D828E
S1133980DFF804090068DFF830190968401A2E28A6
S1133990C0F22382DFF80C09007802280AD1032040
S11339A0DFF8F0180870DFF8E0080068DFF808199D
S11339B0086012E2DFF8EC080078012840F00D827C
S11339C00320DFF8D0180870DFF8BC080068DFF8BF
S11339D0E818086001E2DFF8BC080078032840F02A
S11339E00781DFF8C008007802285FD1DFF8980863
S11339F00068DFF8C4180968401A972803DB01201F
S1133A00DFF8C418087024B2C92C36DB24B22000B5
S1133A1000F084FE02000B00904699462DB2280067
S1133A2000F07CFEDFF87428DFF8743800F08EFEB6
S1133A3042464B4600F05CFF1FD236B21A2E1CDB06
S1133A40DFF87008006801F0DBF831F00041012272
S1133A50DFF8783801F0FCF80FD8DFF86C0800784C
S1133A6001280AD10420DFF82C180870DFF81808A0
S1133A700068DFF8441808607EE0DFF80C0800688E
S1133A80DFF834180968401AB0F52F7F74DD002080
S1133A90DFF800180870DFF8F0070068DFF818187E
S1133AA008600120DFF81818087065E0DFF8F407F3
S1133AB00078012860D1DFF8D0070068DFF8F81734
S1133AC00968401A972803DB0120DFF8FC17087007
S1133AD02DB2C92D38DB2DB2280000F01FFE0200E4
S1133AE00B0016001F0024B2200000F017FEDFF8C0
S1133AF0AC27DFF8AC3700F029FE32003B0000F0C1
S1133B00F7FE21D20FFA88F8B8F11A0F1CDBDFF8A0
S1133B10A407006801F074F831F000410122DFF8D5
S1133B20AC3701F095F80FD8DFF89C07007801282E
S1133B300AD10420DFF85C170870DFF84C0700682E
S1133B40DFF87417086017E0DFF83C070068DFF857
S1133B5068170968401AB0F52F7F0DDD0020DFF8E3
S1133B6034170870DFF820070068DFF84C17086086
S1133B700120DFF84C170870DFF8280700780228C6
S1133B8017D1DFF83007006801F03AF831F000414E
S1133B900122DFF83C3701F05BF80AD80420DFF893
S1133BA0F4160870DFF8E0060068DFF80C17086008
S1133BB013E1DFF8F0060078012840F00E81DFF809
S1133BC0F406006801F01CF831F000410122DFF82E
S1133BD0003701F03DF800F200810420DFF8B4164C
S1133BE00870DFF8A4060068DFF8CC160860F4E07B
S1133BF0DFF8A0060078042840F0C280DFF8A406AD
S1133C000078022817D1DFF8AC06006800F0F8FF4E
S1133C1031F000410122DFF8BC3601F019F80AD86E
S1133C200520DFF870160870DFF85C060068DFF81E
S1133C30881608601BE0DFF86C060078012816D1AE
S1133C40DFF87006006800F0DBFF31F0004101226C
S1133C50DFF8803600F0FCFF09D80520DFF83416C1
S1133C600870DFF824060068DFF84C1608603FB2DD
S1133C70B7F5487F40F3B180DFF83806006800F0FC
S1133C80BFFF31F000410122DFF84C3600F0E0FFC5
S1133C9000F2A380DFF80C060078022835D124B2A4
S1133CA02DB2601BB0F5C87F80F2978036B2300029
S1133CB000F034FD02000B0014001D000FFA88F818
S1133CC0404600F02BFD0022DFF8103600F03EFDE8
S1133CD022002B0000F00CFE80F07F8036B2502EC4
S1133CE07BDADFF8A4050068DFF8CC150968401A10
S1133CF0102872DB0520DFF89C150870DFF88805B2
S1133D000068DFF8B415086067E0DFF8980500780C
S1133D10012862D12DB224B2281BB0F5C87F5CDA29
S1133D200FFA88F8404600F0F9FC02000B0014007A
S1133D301D0036B2300000F0F1FC0022DFF89C35A3
S1133D4000F004FD22002B0000F0D2FD45D20FFA52
S1133D5088F8B8F1500F40DADFF82C050068DFF876
S1133D6058150968401A102837DB0520DFF8241598
S1133D700870DFF814050068DFF83C1508602CE0D3
S1133D80DFF810050078052827D13FB2B7F5E67FA4
S1133D901FDA2DB205FA84F040F22621884218DA9F
S1133DA0DFF8E4040068DFF810150968401A4728B2
S1133DB00FDB0020DFF8DC140870DFF8CC040068A7
S1133DC0DFF8F41408600020DFF8E814086000F05D
S1133DD077FF0020DFF8E8140870DFF8DC040068DF
S1133DE0DFF8FC140860DFF8AC040078BDE8F28F5B
S1133DF0D405FF1F6666E63F2DE9F041DFF8600851
S1133E00B0F90260DFF85808B0F90670DFF850081E
S1133E10B0F90480DFF888080078002840F0A98011
S1133E200FFA88F8B8F5EB7F32DD0FFA88F84046D0
S1133E3000F074FC5FF06632DFF8543400F086FC66
S1133E4002000B0014001D003FB207FA86F000F0D8
S1133E5065FC22002B0000F04BFD19D2DFF828048A
S1133E600068DFF80C180968401A152810DB0120D7
S1133E70DFF8F0170870DFF8F0070068DFF8EC17D8
S1133E800860DFF804040068DFF8E41708602AE03B
S1133E900FFA88F840F22720804520DBDFF8C807B6
S1133EA00068DFF8D01700F019FF18D8DFF8C8074A
S1133EB00088401CDFF8C0170880DFF8BC070088C2
S1133EC0152804DB0220DFF8D81708700BE0DFF8B0
S1133ED0A8070088401CDFF8A017088003E0002032
S1133EE0DFF894170880DFF87C070078012828D1D0
S1133EF0DFF878070068DFF87017096800F000FF42
S1133F00DFF8781700F0EAFE1BD8DFF87C030068BE
S1133F10DFF85C170968401A282812DA0120DFF854
S1133F2080170870DFF860030068DFF84417086042
S1133F300020DFF8301708700120DFF868170870D8
S1133F405AE1DFF844030068DFF824170968401ACF
S1133F504728C0F25181CC480068DFF81417086084
S1133F600020DFF8081708600020DFF8F816087052
S1133F7042E1DFF82C070078012840D1DFF8280758
S1133F80B0F90000B0F5FA7F06DDDFF8EC06008832
S1133F90401CDFF8E4160880DFF81007006800F022
S1133FA02FFE31F000410122DFF8043700F050FE0B
S1133FB011D80220DFF8E81608700020DFF8B816E0
S1133FC008800120DFF8EC160870AF480068DFF8BD
S1133FD0A016086010E1AC480068DFF89416096880
S1133FE0401A3328C0F208810020DFF8B4160870A4
S1133FF00020DFF8B016087000F062FEFCE0DFF885
S1134000A0060078022850D10FFA88F8B8F5C87FC6
S113401032DA3FB207FA86F000F080FB02000B00B0
S113402014001D000FFA88F8404600F077FB5FF09B
S11340306632DFF8843600F089FB22002B0000F0A2
S113404057FC19D2DFF8640600685FF0804100F085
S1134050CBFE11D28C480068DFF814160968401AA8
S1134060332809DB0320DFF8381608708648006817
S1134070DFF8FC150860BFE083480068DFF8F0153E
S11340800968401A9728C0F2B7800020DFF810169C
S113409008707D480068DFF8D81508600020DFF854
S11340A00416087000F00CFEA6E0DFF8F4050078B2
S11340B0032830D10FFA88F8B8F5827F19DDDFF8CC
S11340C0EC050068DFF8F41500F008FE11D86E481E
S11340D00068DFF89C150968401A3D2809DB0420B4
S11340E0DFF8BC15087068480068DFF884150860BC
S11340F082E065480068DFF878150968401A652889
S11341007ADB0020DFF8981508705F480068DFF854
S11341106015086070E0DFF888050078042862D133
S11341200FFA88F8A8F22D10772817D20FFA88F81A
S1134130404600F0F3FA594ADFF8843500F006FBF4
S113414002000B0014001D003FB207FA86F000F0D5
S1134150E5FA22002B0000F0CBFB0CD3DFF84C0572
S1134160006800F04DFD31F000410022DFF85435C5
S113417000F0BEFB1BD244480068DFF8F414096861
S1134180401A472813DB0020DFF8141508700020BC
S1134190DFF8101508703C480068DFF8D414086094
S11341A00120DFF81015087000F08AFD24E036487D
S11341B00068DFF8BC140968401A79281CDB002069
S11341C0DFF8DC14087030480068DFF8A4140860D5
S11341D00020DFF8D01408700120DFF8D81408702C
S11341E000F06EFD08E00020DFF8B41408702648E3
S11341F00068DFF87C140860DFF8A4040078002865
S113420005D0DFF86C040068DFF8BC140860DFF840
S113421090040078BDE8F081DFF84404B0F90600AA
S1134220DFF83C14B1F90210DFF8A0241278002A58
S11342301CD0DFF89C241278002A09D109B201FAB3
S113424080F0142812DA0120DFF8841408700DE0DD
S1134250DFF87C241278012A08D109B201FA80F02F
S1134260332803DB0020DFF868140870DFF86004EB
S113427000787047AA0DFF1FA80DFF1FBE0DFF1F7A
S1134280F30DFF1FF40DFF1F6405FF1FA80BFF1F95
S11342906666F63FD50DFF1F3333F33F9A9999991C
S11342A09999E93FD60DFF1F00002041000020C16D
S11342B09005FF1FE405FF1FA40BFF1FF50DFF1F53
S11342C0D70DFF1F00003E40F60DFF1F0020724077
S11342D0006073400090754000F074400000F83FA7
S11342E0E805FF1F2DE9F04DDD48B0F90270DC4808
S11342F0B0F90660DA48B0F90040D948B0F908507E
S1134300D748B0F90480DFF8D8030078012807D033
S11343102DD3032814D00BD3052820D018D326E09E
S1134320DFF8C0030068401FDFF8A81308601EE030
S1134330DFF8B0030068401FDFF89813086016E048
S1134340DFF8A0030068401DDFF8881308600EE062
S1134350DFF890030068DFF87C13086007E0DFF8FB
S113436084030068401DDFF86C130860FFE7DFF882
S113437078030078DFF868130978884205D0DFF8FD
S113438060030078DFF860130870DFF854030078E6
S1134390012808D10020DFF8541308600020DFF85A
S11343A05013086059E1DFF838030078022850D12F
S11343B0DFF840030078012822D1DFF83C030088AD
S11343C024B22DB2611B4843FDF7A4FB060024B2BE
S11343D004FA85F0401CFDF79DFB0100300000F05D
S11343E015FDFEF7D3FBFDF795FB0022DFF80C1358
S11343F000F0A6FAFEF7CAFBDFF8DC1208602CE135
S1134400DFF8F0020078022840F02781DFF8E802A4
S1134410008824B22DB2611B4843FDF77BFB0600E4
S113442024B204FA85F0401CFDF774FB010030004F
S113443000F0ECFCFEF7AAFBFDF76CFBDFF8C022F2
S1134440002100F07DFAFEF7A1FBDFF88C12086072
S113445003E1DFF88C020078032810D1DFF88C0226
S113446000689D4909680818DFF880120860DFF8C1
S113447080020068401CDFF878120860EDE098487C
S11344800078042868D19B48007801282FD19D48E2
S1134490008800F04DF900229B4B00F057F904000E
S11344A00D003FB236B2B81B00F038F922002B00E1
S11344B000F04CF904000D003FB207FA86F0401CEE
S11344C0FDF728FB00F09CFB02000B0020002900F4
S11344D000F01AFD00F044FEFDF71CFB00228B499E
S11344E000F02EFAFEF752FB7B490860B5E08148E4
S11344F00078022840F0B1808248008800F018F962
S11345000022814B00F022F904000D003FB236B2C4
S1134510B81B00F003F922002B0000F017F9040087
S11345200D003FB207FA86F0401CFDF7F3FA00F0E5
S113453067FB02000B002000290000F0E5FC00F0FE
S11345400FFEFDF7E7FA724A002100F0F9F9FEF7D1
S11345501DFB6149086080E06148007805287CD132
S11345606448007801283AD16A48008800F0E0F8ED
S113457082468B463FB2380000F0D0F804000D00AC
S11345800FFA88F8404600F0C9F800225FF0804333
S113459000F0BAFC02000B002000290000F006FE27
S11345A052465B4600F0D2F804000D003FB207FA11
S11345B088F0401CFDF7AEFA00F022FB02000B006D
S11345C02000290000F0A0FC00F0B0FE504A0021B9
S11345D000F0B6F9FEF7DAFA3F4908603DE04548D5
S11345E00078022839D14B48008800F0A1F88246AF
S11345F08B460FFA88F8404600F090F800225FF0EE
S1134600804300F081FC04000D0036B2300000F05D
S113461085F802000B002000290000F0C7FD524677
S11346205B4600F093F804000D0036B206FA88F0F9
S1134630401CFDF76FFA00F0E3FA02000B002000C3
S1134640290000F061FC00F071FE00222F4900F007
S113465077F9FEF79BFA20490860BDE8F08D000069
S1134660D405FF1FF80DFF1F9405FF1FEC05FF1F66
S1134670AC0BFF1F01004041C00DFF1F01000040B3
S113468025480078401E022802D9C01E01D005E04A
S113469004E0124800680F490860FFE77047000013
S11346A0F70DFF1FD90DFF1F920DFF1FF405FF1F0C
S11346B000001440D80DFF1F6666E63F0100C040AD
S11346C09999F93F00000840F005FF1FCB0DFF1F2B
S11346D0F90DFF1F6005FF1FBC05FF1F8405FF1FA9
S11346E0D50DFF1F8805FF1FFA0DFF1FB00BFF1F1D
S11346F0B40BFF1FD60DFF1FA40DFF1F0000F0C356
S11347000000F043A60DFF1F000010400000E1C3AD
S11347100000E143A20DFF1FDA0DFF1F010040F16D
S11347200980F446404200F005F851F0004160472A
S1134730010000BF09D0B0FA80F18840C91CC1F55E
S11347408461090501EBD02140057047B0B581EAC9
S1134750030C0CF0004C40F2FF7515EA11541DBF18
S113476015EA1357AC42AF4239E0E41923EA455342
S113477043F48013C90241F0004141EA505EC7028C
S11347801100A7FB020200284FF00000EEFB0120FD
S11347904FF00001E3FB072118BF42F0010240186B
S11347A000214941E3FB0E01A4F580640F0302D20A
S11347B052004041494154F101046CDD470872F153
S11347C0004250F1000051EB0451A1F580115CBF8F
S11347D041EA0C01B0BD4CEA05510020B0BD05EA28
S11347E01357AC4214BFAF4241E050EA410E1CBF24
S11347F052EA430E02E061460020B0BD24423C442C
S11348001BD15FEA070EF6D0090302BF0146002060
S1134810AEF1140EB1FA81F7AEEB070401FA07FE0C
S11348200C37C7F1200100FA07F7C8404EEA000E22
S113483023EA455343F48013A2E733F00043B3FA69
S113484083F704BFB2FA82FE77440B3FE41BB7F14F
S1134850200E2FBF02FA0EF3BB40C7F1200E22FA3E
S11348600EFE38BF43EA0E03BA40641C82E750EAE6
S1134870410E14BF52EA430E6FF000014FF40017CB
S113488017EB430F8ABF194617EB410FB5E74CEA04
S113489005510020B0BDD4F10104B4F120070FDAB2
S11348A0C4F12007520828BF42F0010210FA07F5AC
S11348B001FA07F7E1BF2A43E0403843E1400FE043
S11348C0352C98DCC7F1200452EA400220FA07F2A2
S11348D018BF42F0010231FA07F0A1400A43002157
S11348E072F1004250F1000051EB0C01B0BD000028
S11348F04FF4001C1CEB410F94BF1CEB430F09E069
S113490041EA030C50EA4C0C52EA0C0C03D29942D3
S113491008BF9042704714BF8B4282427047000028
S113492090420CD141EA030C50EA4C0C07D0994256
S113493005D14FF4001C1CEB410F38BF894270476E
S113494010B503000C001000190000F04DFA01D25C
S1134950030006E01800210000F046FA01D223000B
S1134960FFE7180010BD10B40022DFF86C221278A3
S1134970002A14D100220BE00023DFF8604252B277
S113498044F822300123DFF8584252B2A354521C97
S113499052B20A2AF0DB0122DFF83C321A70C9B2A3
S11349A00B293BDADFF83822C9B2525C012A10D154
S11349B0DFF8202212680A2303FB0020DFF81C2200
S11349C0C9B242F821000020DFF81422C9B25054C1
S11349D01FE0DFF80C22C9B2525C002A19D1DFF8BB
S11349E0F4211268DFF8F431C9B253F821309A4245
S11349F00FD30122DFF8E831C9B25A54DFF8D421C9
S1134A0012680A2303FB0020DFF8D021C9B242F860
S1134A102100DFF8CC01C9B2405C00E0012010BCE9
S1134A20704770B5040000250026002509E0EDB2AA
S1134A3034F91500FDF76EF8310000F0BFFC0600F4
S1134A406D1CEDB2042DF2DB30005FF0814100F00B
S1134A50DDF90600300070BDF8B504000D00002635
S1134A60002700260EE0F6B234F91600F6B235F946
S1134A70161010FB01F0FDF74DF8390000F09EFC14
S1134A800700761CF6B2042EEDDB3800F2BD70B5DB
S1134A9004000025002600250EE0EDB234F91500CF
S1134AA0EDB234F9151010FB01F0FDF733F83100C5
S1134AB000F084FC06006D1CEDB2042DEDDB30002B
S1134AC070BD70B5040000250026002600250020D6
S1134AD0002044480078012817D10020414908707B
S1134AE0002005E040B2404940B221F81000401CCB
S1134AF040B20428F6DB3C48FFF793FF3B490860CB
S1134B003948FFF7C4FF3A490860002007E040B283
S1134B1034F81010374A40B222F81010401C40B24A
S1134B200428F4DB3348FFF77CFF050031492E48A5
S1134B30FFF792FF06002D4801685FF08140FDF702
S1134B40B9FF2900FDF7B6FF0100300000F0D8F8E6
S1134B500400264801685FF08140FDF7ABFF23495C
S1134B600968FDF7A7FF01002148006800F0C8F8B4
S1134B700100200000F04AF906001C4800683100DA
S1134B80FDF798FF0100280000F0BAF805001A4864
S1134B903100FDF78FFF290000F010FCFDF7F6FF50
S1134BA000B270BD38B504000120250005E02800DE
S1134BB0B4FBF0F10918491C4D08401BFFF7B8FD80
S1134BC031F0004101220D4B00F042F8EFD92800EA
S1134BD032BD00001C05FF1FED0DFF1F5807FF1F0E
S1134BE08007FF1F7904FF1F8C07FF1F9C07FF1F0F
S1134BF0A007FF1F9407FF1F000080BF0000F03FC5
S1134C005FF0FF0C1CEAD05114BF614506E0C110EF
S1134C10400721F0E04101F16051704779B900F09B
S1134C20004100020AD0B0FA80FC00FA0CF001F155
S1134C306051A1EB0C5101EBD021400570474102BA
S1134C400CBF40F4E0016FF0000100207047000049
S1134C504FF4001C1CEB410F94BF1CEB430F09E005
S1134C6041EA030C50EA4C0C52EA0C0C03D28B427E
S1134C7008BF8242704714BF9942904270470000B7
S1134C8080B50023012210211148FDF7A1FF01BDC9
S1134C9080B510480078002802D100F011F80EE029
S1134CA00D480078012805D1002204210848FEF7A8
S1134CB06AF804E0012204210548FEF764F801BD06
S1134CC080B5002204210248FEF75DF801BD000012
S1134CD000F10F40CA0DFF1FCD0DFF1F4FF0807C68
S1134CE01CEB400F94BF1CEB410F05E040EA010CA4
S1134CF05FEA4C0C01D28142704718BF884270476A
S1134D0090EA010F44BF81F0004100F05FBB00BF97
S1134D10431A4FF000423EBF5340C01AC91800BFA7
S1134D20D3095FEAD05C13EB400F34BFB3EB410F00
S1134D3040E07CEBD1530CD342EA012122D8D1EBE1
S1134D40402009D3400A28BF5FEA500140EBCC5011
S1134D507047401A15D04002B0FA80F2521C9040BD
S1134D60400A4FEA3C23B3EB026384BF00EB7300B9
S1134D7007E040F400001A16DB07C2F10102D0403C
S1134D8018437047182BFCDC31FA03F202FA03F3E0
S1134D90591A38BF42F00102D2EB40203CBF400018
S1134DA0ACF1010C5FEACC5CC20572F100414CEB42
S1134DB05020704713EB400F0FD24B0009D0ACEBDF
S1134DC0D153022B03DB4902172BDDDD70479143DE
S1134DD0401A4300D5D10020704713EB410FD0D3C4
S1134DE06FF00000704700004FF0807C1CEB400F18
S1134DF094BF1CEB410F05E040EA010C5FEA4C0C48
S1134E0001D28842704718BF8142704710B5FF2312
S1134E1013EAD0541DBF13EAD1529C429A4239E09E
S1134E20A41ADA0780EA0103134042EA012142EAA4
S1134E300020421A3CBF641E01EB4202090AB2FB85
S1134E40F1FE01FB1E221202B2FBF1F001FB102263
S1134E506EF30F201202B2FBF1FE4EEA00207F3403
S1134E6006DDFE2C24DA53EA500050EBC45010BD8A
S1134E70D4F1020401FB1E2240F08071192C1DDCC8
S1134E8021FA04F0C4F12004A140114371F100425D
S1134E90584110BD9C421ABF03EAD1529A420FE016
S1134EA080EA010E0EF00043400004D0490016D100
S1134EB043F0FF4010BD490008BFD343180010BDA4
S1134EC09C4205D1D21AF7D001F00041484010BDF0
S1134ED04A0212BF0846484000F0004010BD4AB9DB
S1134EE00902B1FA81F2914044B1A418C00140F022
S1134EF000409EE7C90141F0004152420002B0FA6D
S1134F0080F4A040141B94E72DE9F04140F2FF75B2
S1134F1081EA030C0CF0004C15EA11541DBF15EA8C
S1134F201357AC42AF42E9E0BC41C1F31301C3F3F0
S1134F301303801A994143F4801304D2641E400081
S1134F40494180185941C90241EA5051B1FBF3F675
S1134F5003FB1611A2FB0675D7EBC020A94102D2B0
S1134F60761E80185941C90241EA5051B1FBF3FE43
S1134F7003FB1E11A2FB0E75D7EBC020A94103D27F
S1134F80AEF1010E80185941890241EA905176052B
S1134F9046EA8E2EB1FBF3F603FB1611A2FB06754F
S1134FA0D7EB8020A94102D2761E80185941C9024C
S1134FB041EA50514EEA060EB1FBF3F603FB16111B
S1134FC0A2FB0675D7EBC020A94102D2761E801839
S1134FD05941C90241EA5051B1FBF3F703FB1711E0
S1134FE0A2FB0735D3EBC020A94167F100070CBF32
S1134FF0004247F0010766F3D5274FEA1E31B8088F
S113500014F5806414DDBD0775F1004250EB0E50B9
S113501051EB045111F5801F5CBF41EA0C01BDE85E
S1135020F0814CF07F6141F0E0410020BDE8F08167
S1135030BD076D0840EA0E5041F48011D4F101041B
S1135040B4F120060ADAC4F120060200E04001FAB5
S113505006F3E1401843B24015430EE0342C14DC4F
S1135060C6F1200445EA40056D0820FA06F215430E
S113507021FA06F0A1400D43002175F1004250F1E0
S1135080000051EB0C01BDE8F08100205FEA0C0147
S1135090BDE8F081CFB992185B41B3FA83F704BF3E
S11350A0B2FA82F6BF190B3FB7F120062FBF02FAFE
S11350B006F3BB40C7F1200622FA06F638BF334395
S11350C0BA401CB1E419641E2FE77F4231F000415D
S11350D0B1FA81F404BFB0FA80F6A4190B3CB4F120
S11350E020062FBF00FA06F1A140C4F1200620FAE1
S11350F006F638BF3143A0403C1B16E7AC421ABF4A
S113510005EA1357AF4214E050EA41061CBF52EAC5
S11351104306BFE750EA4107304661461CBF41EAF7
S11351200551BDE8F08152EA430C08BFC143BDE814
S1135130F08100204FF4001616EB410F98BF16EBD8
S1135140430F08BF16EB410F24BFC14305E016EB24
S1135150430F0CBF61464CEA0551BDE8F0810000E5
S1135160F446400D40EAC120490006D200F00EF892
S1135170004248BF6FF00040604700F007F84FF06E
S1135180004188428CBF08464042604740F00040DE
S1135190490DA1F58061491C05D4D1F11F0154BF0B
S11351A0C840C01770474FF000007047F0B44FF08C
S11351B0004591EA030F44BF6B4000F04BB900BFB8
S11351C0841A71EB030604D26E40001BB14112191C
S11351D073414FF4001C1CEB410F34BF7CEB4306BE
S11351E084E00C0DA4EB1356362E7DDC012E43DC3B
S11351F045EAC32343EA525312BFD20292025B0828
S1135200240545EAC12141EA5051D2EBC02099411D
S113521025D407D1B0FA80F610FA06F164D0002044
S1135220203608E0B1FA81F6B140C6F1200220FA36
S113523002F21143B0404FEAF474B4EB465434F034
S113524001064FEA74040AD8D6F50016760D04F068
S11352500044F04061FA06F25040F1404840C00A70
S113526040EA415021F0004128BF5FEA500550F167
S1135270000044EBD12137E045EAC323DB0A45EAC9
S1135280C121C90AB6F120050EDD42EA0242120C20
S1135290C5F1200603FA06F6EB4042EA06056D4224
S11352A0984161F100010DE062FA06F5F2405540C3
S11352B063FA06FC82EA0C02F3405A406D429041C4
S11352C061EB030111F4801F05D1641E620502D055
S11352D06D004041494121F48011430875F10043B8
S11352E050F1000041EB0451F0BC70471CEB410F3E
S11352F015D223F0004352EA43060BD04FEA4C0C7C
S1135300BCEB410F04D80C0D661E342EB7DDEBE761
S1135310801A994150EA410608BF0021E4E708BF1A
S11353201CEB430F28BF6FF00001DDE74FEAF17C6F
S1135330BCF1E04C2CBFBCF5001F11E05FEA4C0C43
S113534034BFBCF17F5F2EE05FEA9C0C4FEA0C1C7B
S11353504FEA3C0CC10071F100414CEB50707047B6
S1135360C90241EA5051C00218BF41F0010141F0A5
S113537000414FEA6C50C0F10900212810D240EAE4
S1135380CC7CCCF1200C11FA0CF070F10040CCF183
S1135390200C21FA0CF00CF0004C40EB0C00704790
S11353A04FEACC707047490011F5001F04D84FEA4A
S11353B0CC10FF30C0057047C817704790EA010F42
S11353C044BF81F00041FFF7A3BC00BF421A3CBFB9
S11353D0801A89184FF0004CC0F3C752FF2A24D01A
S11353E0C1F3C75313B3D21AD2F1190327DD4CEA20
S11353F001214CFA03F321EA0303D140C20D4CEA24
S11354000020401834BF20EA0C004CEA5000D205BA
S113541053EA006373EB0C0C52EB1020420012F1C0
S1135420807F38BF7047C00DC0057047490212BF66
S11354309A4200EB5120F8E7D2F11703D9D570470F
S1135440F0B44FF0004591EA030C44BF6B40FFF702
S1135450B7BE00BF841A71EB030603D2001BB1412F
S1135460121973414FF4001C1CEB410F34BF7CEB49
S1135470430443E00C0DA4EB1356352E50DC45EAEF
S1135480C323DB0A45EAC121C912B6F120050DDDAB
S113549063FA05F6EB4086EA0305124218BF45F0AD
S11354A00105C01851F100010CD213E062FA06F5AF
S11354B0F2405540F3415A40B340F3405A408018FB
S11354C0594107D349085FEA30005FEA350528BF30
S11354D045F0010501F58011420875F1004250F1D3
S11354E0000041EB0451F0BC4FF4001C1CEB410FD5
S11354F038BF70470020090D090570471CEB410FA8
S113550010D252EA43060BD0BCEB410F05D80C0D68
S1135510AB43661E342EB5DD02E0AB43801859411F
S1135520F0BC7047F0BC704780B500F0BFFBDFF8FB
S1135530540C0078002803D1DFF8E80C00F09EFA40
S1135540DFF8500A0068DFF8EC1B086000F005FC87
S1135550DFF8D40C4088DFF8D01CC9880818DFF8BD
S1135560381A0880DFF8C00C8088DFF8301A088009
S1135570DFF8B40C0088DFF8B01C09890818DFF8DC
S1135580B81B0880DFF8FC0B0078002801D101F07B
S113559072F8DFF8980C0078012869D1DFF8380C2C
S11355A00068042864DBDFF8940B0078012806D037
S11355B0032819D004281DD005282BD030E0FEF78D
S11355C02BFEDFF87C1B0870FEF716FCDFF8B81B17
S11355D00870FEF715F8DFF8B41B087000F0A0FEA1
S11355E0DFF8AC1B087034E0FEF70AF8DFF89C1B08
S11355F008702EE0FEF700FCDFF88C1B0870FDF746
S1135600FFFFDFF8881B087000F08AFEDFF8801BBC
S113561008701EE000F084FEDFF8741B087018E0C8
S1135620FEF7FAFDDFF8181B0870FDF793FFDFF8AB
S1135630641B0870FEF7E0FBDFF84C1B0870FDF7F5
S1135640DFFFDFF8481B087000F06AFEDFF8401B3C
S11356500870DFF8E80A0078002807D1DFF87C0B2F
S11356600078002802D001F042FA01E001F065FA66
S1135670DFF86C0B006844F6216188420BDB0020E4
S1135680DFF8041B08700020DFF8001B08700020FE
S1135690DFF8FC1A0870DFF8F80A0078002815D043
S11356A0DFF8EC0A0078022190FBF1F201FB120012
S11356B0002802D0FFF7ECFA01E0FFF701FB052018
S11356C0DFF8781A087001F0CBF836E0DFF8BC0A8E
S11356D00078002815D0DFF8B40A0078022190FB86
S11356E0F1F201FB1200002802D0FFF7D1FA01E029
S11356F0FFF7E6FA0320DFF8441A0870FEF7F2FD1C
S11357001BE0DFF8840A0078002810D0DFF8780A5C
S11357100078032802D1FFF7D3FA01E0FFF7B8FAC3
S11357200420DFF8181A0870FEF7AAFF05E001202C
S1135730DFF8081A0870FFF7C3FADFF8F40A0078F4
S1135740002812D0DFF8EC0A0068DFF8EC1A88426F
S11357500BD3DFF8E80A0068DFF87C1A096888428E
S113576003DA0120DFF8D81A0870DFF8D40A0078C9
S113577000281FD0DFF8CC0A0068002806D1DFF823
S1135780580A0068DFF8BC1A086013E0DFF8480A1A
S11357900068DFF8B01A0968401A652808DB0020A1
S11357A0DFF8901908600020DFF8801A087001E023
S11357B0FFF76EFADFF8900A0068DFF81C1A096830
S11357C0884203DA0020DFF8641A087001BDE0B5EE
S11357D0684601F073FABDF80000DFF8701A08801B
S11357E0BDF80000DFF83C1A0880BDF80800DFF8B7
S11357F05C1A0881BDF80800DFF8281A0881BDF892
S11358000400DFF8481A8880BDF80400DFF8141A91
S11358108880BDF80200DFF8341A4880BDF8020021
S1135820DFF8001A4880BDF80600DFF8201AC880A7
S1135830BDF80600DFF8EC19C88007BD002100227E
S1135840DFF8E8291278012A25D1002201E0491C59
S1135850521C052A03DA30F912300B2BF7DB04292A
S113586007DBDFF8EC090068401CDFF8E419086086
S113587003E00020DFF8D8190860DFF8D4090068D5
S1135880C8280CDBC920DFF8C81908600020DFF83D
S11358909C19087003E00020DFF8B4190860704711
S11358A038B5040000250020002508E0DFF8A4092D
S11358B030F83500DFF8A01921F815006D1C052D0E
S11358C0F4DB00250BE034F81500DFF88C1921F81F
S11358D015000020DFF8841941F825006D1C052D02
S11358E080F2A280DFF8700930F9150034F9151040
S11358F0884251DB34F91500DFF85C1931F91510D1
S11359000F39884224DADFF84C0900EBC500FFF7B1
S1135910D8F8DFF8441921F81500DFF8400950F8E9
S11359202500401CDFF8341941F82500DFF82C0964
S113593050F825000428D1DB34F81500DFF81819D5
S113594021F815000020DFF8141941F82500C5E7F7
S113595034F91500DFF8001931F915100A398842B5
S11359600EDADFF8F40830F81500401FDFF8E81805
S113597021F815000020DFF8E41841F82500ADE710
S113598034F81500DFF8D01821F815000020DFF8EE
S1135990CC1841F82500A1E7DFF8BC0830F9150060
S11359A00F3034F91510884225DADFF8A80800EB27
S11359B0C500FFF786F8DFF8A01821F81500DFF816
S11359C09C0850F82500401CDFF8901841F8250089
S11359D0DFF8880850F825000428FFF67FAF34F874
S11359E01500DFF8741821F815000020DFF86C1892
S11359F041F8250072E7DFF8600830F915000A3035
S1135A0034F915108842BFF65EAFDFF84C0830F861
S1135A101500401DDFF8401821F815000020DFF8BC
S1135A203C1841F8250059E7002506E0DFF828086E
S1135A3030F8150024F815006D1C052DF6DB002543
S1135A4017E0DFF8101801EBC501DFF8082802EBB6
S1135A50C50202EB400232F8022C21F81020401E4D
S1135A600128EEDA34F81500DFF8E81721F83500DC
S1135A706D1C052D01DA0320F2E731BD2DE9F84351
S1135A805FF000095FF000080024B0F90040B0F9AD
S1135A900250B0F90660B0F9087024B23FB2E01BBE
S1135AA0FCF738F8DFF8B817FDF704F880463FB282
S1135AB007FA84F0401CFCF72DF801004046FFF77C
S1135AC0A5F980462DB236B2A81BFCF723F8DFF8FF
S1135AD09417FCF7EFFF81462DB205FA86F0401CBF
S1135AE0FCF718F801004846FFF790F981463FB2E9
S1135AF024B2381BFCF70EF8DFF86417FCF7DAFF62
S1135B00040036B206FA85F0401CFCF703F80100E5
S1135B102000FFF77BF90400DFF84C070078022827
S1135B200AD14046DFF84417FFF7D8F804D801201B
S1135B30DFF8341708700EE0DFF82C07007801282E
S1135B4009D14046DFF82817FFF74EF903D20220A7
S1135B50DFF814170870DFF81C070088FBF7E4FF70
S1135B604146FCF7A7FFDFF8F816FFF74FF9FDF7FA
S1135B700DF8DFF804170880DFF800070088FBF74A
S1135B80D3FF4946FCF796FFDFF8D416FFF73EF93A
S1135B90FCF7FCFFDFF8E8160880DFF8E806008869
S1135BA0FBF7C2FF2100FCF785FFDFF8B416FFF70F
S1135BB02DF9FCF7EBFFDFF8D0160880DFF8C006FC
S1135BC0B0F90000DFF8C4160860BDE8F1832DE9E0
S1135BD0F84F0400B4F90290B4F90650B4F9006027
S1135BE0B4F90870B4F90480B9F10309ED1EF61E86
S1135BF0FF1EB8F10308DFF8982600218A46934671
S1135C000FFA89F94846FBF785FF5A465146FEF7D5
S1135C1097FEFCF7BBFF8146DFF8742600218A4615
S1135C2093462DB22800FBF775FF5A465146FEF7FE
S1135C3087FEFCF7ABFF0500DFF8542600218A46F7
S1135C40934636B23000FBF765FF5A465146FEF7DD
S1135C5077FEFCF79BFF0600DFF8342600218A4616
S1135C6093463FB23800FBF755FF5A465146FEF7BC
S1135C7067FEFCF78BFF0700DFF8142600218A4635
S1135C8093460FFA88F84046FBF744FF5A465146BC
S1135C90FEF756FEFCF77AFF8046A4F80290E580F2
S1135CA026802781A4F80480BDE8F18F80B5002008
S1135CB00021DFF8E0050088401CDFF8D8150880D3
S1135CC0FFF785FDDFF85C0500F0EAFEDFF8540518
S1135CD0FFF77DFFDFF8BC05B0F9000040F6C41102
S1135CE0884212DB40F6C510DFF8A8150880DFF8FB
S1135CF03405FFF7D5FDDFF88C040078002803D1C4
S1135D00DFF82005FFF79AFD01BD002020E0DFF851
S1135D10442500B202EBC00209B2DFF8383500B204
S1135D2003EBC00309B203EB410333F8023C22F84E
S1135D301130491E09B20129E9DADFF8E81400B28A
S1135D4031F81010DFF80C2500B222F83010401C96
S1135D5000B20528D8DA0321ECE770B586B000203C
S1135D60DFF83415098842F2107291421CDA0024DB
S1135D7010E0DFF8281524B251F82410DFF8CC2401
S1135D8024B232F914208918DFF8102524B242F81D
S1135D902410641C24B2052CEBDBDFF8FC14098806
S1135DA0491CDFF8F4241180DFF82C140968DFF8AB
S1135DB0F0241268891A1529C0F2B380002422E065
S1135DC0DFF8E0240A2311FB03F31A4424B2DFF8BA
S1135DD0D4340A2511FB05F52B4424B203EB440308
S1135DE05B8822F81430491C09B20529E8DBDFF886
S1135DF0B81424B201EB84014968DFF8AC2424B25E
S1135E0042F82410641C24B2042C01DA0021EBE7CC
S1135E1000241CE0DFF8841424B251F82410DFF8C5
S1135E2078241288B1FBF2F1DFF878240A2314FBFA
S1135E3003F31A4411810021DFF8602424B242F8EC
S1135E40241000216A4624B242F82410641C24B2AF
S1135E50052CDFDB0021DFF840241180DFF8781304
S1135E600968DFF83C241268891ADFF83C241161C0
S1135E70002430E06A4609B252F82120DFF82434C5
S1135E800A2511FB05F52B4424B203EB4403B3F9B3
S1135E90043002FA83F2DFF80C340A2511FB05F50D
S1135EA02B4424B233F91430D21A6B4609B243F8A6
S1135EB02120491C09B20529DCDBDFF8EC1324B2EC
S1135EC051F82410DFF8E02324B202EB8402926834
S1135ED051180818641C24B2022C01DA0021E9E7E5
S1135EE0002416E0DFF8C413DFF8C423B2F902205B
S1135EF091FBF2F16A4624B252F824205143820005
