S0270000313474685F776972656C6573735F656E657267795F736176696E675F4B36302E737265630F
S3151FFF0000A826FF1F1104FF1F2104FF1F3313FF1F06
S3151FFF00102104FF1F2104FF1F2104FF1F00000000F3
S3151FFF00200000000000000000000000002104FF1F69
S3151FFF00302104FF1F000000002104FF1F491FFF1F90
S3151FFF00404516FF1F5B16FF1F7116FF1F8716FF1F24
S3151FFF00509D16FF1FB316FF1FC916FF1FDF16FF1FB4
S3151FFF0060F516FF1F0B17FF1F2117FF1F3717FF1F41
S3151FFF00704D17FF1F6317FF1F7917FF1F8F17FF1FD0
S3151FFF00802104FF1F2104FF1F2104FF1F2104FF1F40
S3151FFF00902104FF1F2104FF1F2104FF1F2104FF1F30
S3151FFF00A0A518FF1FFF18FF1F210EFF1FCB0EFF1FD8
S3151FFF00B0750FFF1F8B11FF1F9311FF1F9B11FF1F34
S3151FFF00C0A911FF1FB311FF1FBD11FF1FBF11FF1F78
S3151FFF00D0C111FF1FC311FF1FCB11FF1FD311FF1F1E
S3151FFF00E0E111FF1FEB11FF1F1112FF1F1312FF1F3E
S3151FFF00F01512FF1F3D07FF1F2104FF1F6D07FF1F60
S3151FFF01002104FF1F9D07FF1F2104FF1FCD07FF1F91
S3151FFF01102104FF1FFD07FF1F2104FF1F2D08FF1FC0
S3151FFF01202104FF1FC11EFF1FCB1EFF1F2104FF1F21
S3151FFF01302104FF1F2104FF1F4D1EFF1F571EFF1FF9
S3151FFF0140611EFF1F2104FF1FC11BFF1F00000000B1
S3151FFF0150551BFF1F6B1BFF1F811BFF1F971BFF1FBF
S3151FFF0160F119FF1F591FFF1F2104FF1FBD19FF1F76
S3151FFF01709719FF1F7119FF1FD319FF1F2104FF1F98
S3151FFF01802104FF1FB117FF1F1B18FF1FE51AFF1FB4
S3151FFF01902104FF1FA11EFF1F2104FF1F711AFF1F2F
S3151FFF01A0831AFF1F951AFF1FA71AFF1FB91AFF1FD3
S3151FFF01B02104FF1F2104FF1F2104FF1F2104FF1F0F
S3151FFF01C02104FF1F2104FF1F2104FF1F2104FF1FFF
S3151FFF01D02104FF1F2104FF1F2104FF1F2104FF1FEF
S3151FFF01E03D13FF1F3D13FF1F3D13FF1F3D13FF1F33
S3151FFF041001488047014800471912FF1FFB1EFF1F98
S3091FFF042000F08CBF79
S3151FFF04240FB4F0B50598069B9DF81C709DF81D50DB
S3151FFF04340899099A002B01D14FF41653DFF81C4470
S3151FFF0444A0423FD10024DFF818643668DFF814C4CE
S3151FFF0454DCF800C05CF4806CDFF808E4CEF800C05B
S3151FFF0464FFB2022F06D14FF40077DFF8FCC3CCF897
S3151FFF047400700FE0FFB20E2F06D14FF44077DFF85F
S3151FFF0484ECC3CCF8007005E04FF44077DFF8E0C308
S3151FFF0494CCF80070EDB2012D05D14FF40075DFF8CE
S3151FFF04A4D4733D60F4E0EDB20F2D05D14FF44075C3
S3151FFF04B4DFF8C4733D60EBE04FF44075DFF8BC73A0
S3151FFF04C43D60E5E0DFF8B843A0422CD10124DFF8F5
S3151FFF04D490633668DFF88CC3DCF800C05CF4006CED
S3151FFF04E4DFF880E3CEF800C0FFB27C2F06D14FF4AE
S3151FFF04F44077DFF890C3CCF8007005E04FF44077E0
S3151FFF0504DFF884C3CCF80070EDB27D2D05D14FF40F
S3151FFF05144075DFF878733D60BAE04FF44075DFF836
S3151FFF052470733D60B4E0DFF86C432668DFF86843F9
S3151FFF0534A04213D10224DFF82C532D6855F480559E
S3151FFF0544DFF820733D604FF44075DFF850733D604D
S3151FFF05544FF44075DFF848733D6099E0DFF8444375
S3151FFF0564A0423CD10324DFF8FCC2DCF800C05CF4D4
S3151FFF0574005CDFF8F0E2CEF800C0FFB2802F06D191
S3151FFF05844FF44077DFF820C3CCF800700FE0FFB2BB
S3151FFF05942B2F06D14FF44077DFF810C3CCF800702A
S3151FFF05A405E04FF44077DFF808C3CCF80070EDB2CF
S3151FFF05B4812D05D14FF44075DFF8F8723D6067E072
S3151FFF05C4EDB22A2D05D14FF44075DFF8EC723D606D
S3151FFF05D45EE04FF44075DFF8E4723D6058E0DFF8E4
S3151FFF05E4E042A04229D10424DFF8D8C2DCF800C0B8
S3151FFF05F45CF4806CDFF8CCE2CEF800C0FFB2942F18
S3151FFF060406D14FF44077DFF8C0C2CCF8007005E07F
S3151FFF06144FF44077DFF8B4C2CCF80070EDB2952DD6
S3151FFF062405D14FF44075DFF8A8723D6030E04FF4F3
S3151FFF06344075DFF8A0723D602AE00524DFF89802B3
S3151FFF0644DFF880C2DCF800C05CF4006CDFF874E2EC
S3151FFF0654CEF800C0FFB2652F06D14FF44077DFF8FF
S3151FFF06647CC2CCF8007005E04FF44077DFF870C208
S3151FFF0674CCF80070EDB2642D05D14FF44075DFF849
S3151FFF068464723D6004E04FF44075DFF85C723D60B1
S3151FFF0694C57815F0F305C570002585701D01B6FBDA
S3151FFF06A4F5F5077817F0E007C5F3042C5CEA07078F
S3151FFF06B40770457076011B01B6FBF3F3ADB2B3EBBF
S3151FFF06C44513857A15F0E00713F01F033B43837227
S3151FFF06D49DF81E30012B0BD10B00002B08D0C378BE
S3151FFF06E453F02003C370814BE4B243F8241003E095
S3151FFF06F4C17811F0DF01C1709DF81F1001290BD1BD
S3151FFF07041100002908D0C17851F08001C1707849C2
S3151FFF0714E4B241F8242003E0C17811F07F01C170D0
S3151FFF0724C17851F00C01C170F0BC5DF814FB02795E
S3151FFF07341206FCD5C171704780B56E4800788006D6
S3151FFF074406D56D480078800602D56848006880473D
S3151FFF075468480078000606D567480078000602D564
S3151FFF076463480068804701BD80B5644800788006EA
S3151FFF077406D563480078800602D55C4840688047E3
S3151FFF07845E480078000606D55D480078000602D548
S3151FFF079457484068804701BD80B55A480078800690
S3151FFF07A406D559480078800602D550488068804789
S3151FFF07B454480078000606D553480078000602D52C
S3151FFF07C44B488068804701BD80B550480078800636
S3151FFF07D406D54F480078800602D54448C06880472F
S3151FFF07E44A480078000606D549480078000602D510
S3151FFF07F43F48C068804701BD80B5464800788006DC
S3151FFF080406D545480078800602D5384800698047D3
S3151FFF081440480078000606D53F480078000602D5F3
S3151FFF082433480069804701BD80B53C480078800680
S3151FFF083406D53B480078800602D52C484069804779
S3151FFF084436480078000606D535480078000602D5D7
S3151FFF085427484069804701BD0000000000A00640ED
S3151FFF0864C81FFF1F3480044008900440389004407B
S3151FFF087444A00440049004403C90044040A004401C
S3151FFF088400B0064000D0044010B0044004D004401A
S3151FFF08940CB00440CC1FFF1F00C006400CC0044011
S3151FFF08A408C0044000D0064010D004402CA00440CA
S3151FFF08B444B0044014D0044028A0044040B0044070
S3151FFF08C400A00E402880044060D004403CB0044082
S3151FFF08D464D0044038B0044000B00E4024C0044026
S3151FFF08E420D0044020C0044024D004407022FF1FA0
S3151FFF08F48822FF1F04A0064003A0064004B006403B
S3151FFF090403B0064004C0064003C0064004D0064099
S3151FFF091403D0064004A00E4003A00E4004B00E40B1
S3151FFF092403B00E4010B50C001168012902D002292D
S3151FFF093404D009E040B25168884705E09168087002
S3151FFF09449068401C9060FFE72068401C206010BD24
S3151FFF095430B41C00002300250570401C002A19D043
S3151FFF0964096800290AD1302101705B1C180030BCAD
S3151FFF09747047303511000570401C5B1C0029F5D0EC
S3151FFF098491FBF4F204FB1215002DF2D5E94311F185
S3151FFF09943105EFE70968002908D1302101705B1C77
S3151FFF09A4E4E7373511000570401C5B1C0029DDD0B9
S3151FFF09B4B1FBF4F204FB12150A2DF2D23035F1E71F
S3151FFF09C4F8B504000D0016001F0005E03A003100BC
S3151FFF09D43020FFF7A7FF641CAC42F7DBF1BDF8B568
S3151FFF09E404000D0016001F0005E03A003100202009
S3151FFF09F4FFF798FF641CAC42F7DBF1BD2DE9F04FFF
S3151FFF0A048DB005009046002000900C0004E02A00DC
S3151FFF0A146946FFF787FF641C94F90000002800F05E
S3151FFF0A24DA81252811D00A2804D02A006946FFF740
S3151FFF0A3479FF09E02A0069460D20FFF773FF2A0095
S3151FFF0A4469460A20FFF76EFFE5E70026002101E04E
S3151FFF0A5456F0010600291CD1641C94F900002028B6
S3151FFF0A640BD023280FD02B2804D02D28F0D03028C5
S3151FFF0A7406D00BE056F00206ECE756F00406E9E74C
S3151FFF0A8456F00806E6E756F01006E3E7641E012153
S3151FFF0A94E0E70027002104E00A2202FB0700B0F16A
S3151FFF0AA43007002909D1641C94F900000200303A6B
S3151FFF0AB4092AF1D9641E0121F3E7641C94F9000086
S3151FFF0AC42E280CD10021FFE7002909D1641C94F9B4
S3151FFF0AD4000030380928F7D9641E0121F4E7641E84
S3151FFF0AE4641C94F900004C2806D0682802D06C2891
S3151FFF0AF401D002E002E001E000E0641E641C94F9E9
S3151FFF0B0400000100582976D0622900F0D680632998
S3151FFF0B1400F02781642913D0692911D06E2900F0AB
S3151FFF0B2453816F2900F0BC80702900F0D38073298D
S3151FFF0B3400F02181752900F0DA8078295BD066E7FA
S3151FFF0B44D8F8000018F1040803900A23012203A909
S3151FFF0B5404A8FFF7FDFE814604A8484402900398A4
S3151FFF0B64002804D55FF02D0A19F101090FE0B0071C
S3151FFF0B7404D55FF02B0A19F1010908E0700704D5A4
S3151FFF0B845FF0200A19F1010901E05FF0000A5FF027
S3151FFF0B94000B300711D5BAF1000F04D02A0069469E
S3151FFF0BA45046FFF7BFFE5FF0010B2B006A46390065
S3151FFF0BB44846FFF705FFB94611E0F0070FD42B0090
S3151FFF0BC46A4639004846FFF70AFFBAF1000F04D0F9
S3151FFF0BD42A0069465046FFF7A5FE5FF0010BBBF1DE
S3151FFF0BE4000F07D1BAF1000F04D02A0069465046F9
S3151FFF0BF4FFF798FEA7E0D8F8000018F10408019044
S3151FFF0C041023002201A904A8FFF7A2FE814604A808
S3151FFF0C14484402905FF0000B300715D5F0060BD53D
S3151FFF0C242A0069463020FFF77DFE2A006946782091
S3151FFF0C34FFF778FE5FF0010B2B006A463900484623
S3151FFF0C44FFF7BEFEB94619E0F00717D4F00601D524
S3151FFF0C5419F102092B006A4639004846FFF7BFFE02
S3151FFF0C64F0060BD52A0069463020FFF75BFE2A00E4
S3151FFF0C7469467820FFF756FE5FF0010BF0060ED587
S3151FFF0C84BBF1000F0BD12A0069463020FFF74AFE3E
S3151FFF0C942A0069467820FFF745FE19F1020952E03B
S3151FFF0CA4D8F8000018F1040801900823002201A9AF
S3151FFF0CB404A8FFF74DFE814625E0D8F8000018F17A
S3151FFF0CC4040801900223002201A904A8FFF740FE8E
S3151FFF0CD4814618E0D8F8000018F104080190102384
S3151FFF0CE4002201A904A8FFF733FE81460BE0D8F8BB
S3151FFF0CF4000018F1040801900A23002201A904A881
S3151FFF0D04FFF726FE814604A848440290300707D5FD
S3151FFF0D142B006A4639004846FFF752FEB94612E0D2
S3151FFF0D24F00710D42B006A4639004846FFF757FED3
S3151FFF0D3409E02A006946029890F90000FFF7F2FDC1
S3151FFF0D440298401E0290029890F900000028F0D1E5
S3151FFF0D54F00705D52B006A4639004846FFF73FFEC5
S3151FFF0D6459E6D8F8000018F1040840B22A0069466C
S3151FFF0D74FFF7D8FD4FE6D8F800A018F10408BAF11B
S3151FFF0D84000F20D0504600F03BF88146F0070ED4E3
S3151FFF0D942B006A4639004846FFF721FE07E02A0063
S3151FFF0DA469469AF90000FFF7BDFD1AF1010A9AF980
S3151FFF0DB400000028F3D1F00705D52B006A4639003A
S3151FFF0DC44846FFF70CFE26E6D8F8000018F104087C
S3151FFF0DD4009901601FE600980DB0BDE8F08F0EB4B1
S3151FFF0DE400B584B0012100910449019105AA0100B0
S3151FFF0DF46846FFF703FE04B05DF810FB211FFF1FB4
S3151FFF0E040021002802D1002007E0491C0200501CC4
S3151FFF0E1492F90020002AF8D10800704780B582484E
S3151FFF0E240068002809D57D48006880477E4800680A
S3151FFF0E3450F000407C49086044E07B480068C000CE
S3151FFF0E4409D57648406880477748006850F0805038
S3151FFF0E547549086036E074480068000109D56F4874
S3151FFF0E64806880477048006850F000606E490860CC
S3151FFF0E7428E06D480068800109D5684800698047E6
S3151FFF0E846948006850F00070674908601AE06648B1
S3151FFF0E940068000309D56148C06880476248006837
S3151FFF0EA450F40020604908600CE05F480068800327
S3151FFF0EB408D55A48406980475B48006850F400309C
S3151FFF0EC45949086001BD80B558480068002809D5EF
S3151FFF0ED45348006880475548006850F000405349FF
S3151FFF0EE4086044E051480068C00009D54C48406873
S3151FFF0EF480474E48006850F080504C49086036E0E2
S3151FFF0F044A480068000109D5454880688047474815
S3151FFF0F14006850F000604549086028E043480068B0
S3151FFF0F24800109D53E48006980474048006850F054
S3151FFF0F3400703E4908601AE03C480068000309D563
S3151FFF0F443748C06880473948006850F4002037493E
S3151FFF0F5408600CE035480068800308D530484069AF
S3151FFF0F6480473248006850F400303049086001BD9D
S3151FFF0F7480B52F480068002809D52A48006880478E
S3151FFF0F842B48006850F000402949086044E0284870
S3151FFF0F940068C00009D52348406880472448006875
S3151FFF0FA450F080502249086036E02148006800014E
S3151FFF0FB409D51C48806880471D48006850F00060AB
S3151FFF0FC41B49086028E01A480068800109D515489F
S3151FFF0FD4006980471648006850F00070144908607E
S3151FFF0FE41AE013480068000309D50E48C0688047F6
S3151FFF0FF40F48006850F400200D4908600CE00C48A8
S3151FFF10040068800308D50748406980470848006879
S3151FFF101450F400300649086001BD00001C22FF1F63
S3151FFF10243422FF1F4C22FF1F2CC002402CD002402C
S3151FFF10342CC00A40C9B2202906DA026B012313FA10
S3151FFF104401F11143016306E0C26A0123203913FA32
S3151FFF105401F11143C1627047C9B2202904DA006B3B
S3151FFF1064C84010F0010004E0C06A2039C84010F0E0
S3151FFF10740100C0B2704738B505000C002100C9B284
S3151FFF10842800FFF7E9FF002821D02100C9B2280055
S3151FFF1094FFF7D0FF564885420BD15748E4B250F8A5
S3151FFF10A42400002813D05448E4B250F82400804784
S3151FFF10B40DE0504885420AD15048E4B250F8240047
S3151FFF10C4002804D04D48E4B250F82400804731BDB0
S3151FFF10D438B504000D002900C9B22000FFF7BCFF75
S3151FFF10E4012812D14248844210D14348EDB250F829
S3151FFF10F42500002804D04048EDB250F8250080474C
S3151FFF11042900C9B22000FFF795FF31BD3948844234
S3151FFF11140BD13A48EDB250F825000028F0D03748D6
S3151FFF1124EDB250F825008047EAE7EEE710B5002435
S3151FFF11340FE03348E4B221010844007A012807D19E
S3151FFF11442100C9B22E48E4B222018058FFF7C0FF1F
S3151FFF1154641CE4B2102C15DA2948E4B22101405865
S3151FFF11640028F5D02648E4B221010844007A022854
S3151FFF1174DFD12100C9B22248E4B222018058FFF70A
S3151FFF11847AFFE5E710BD80B5FFF7D0FF01BD042049
S3151FFF11941C49086070471B480068810701D5194918
S3151FFF11A4086070475FF400301649086070475FF4A4
S3151FFF11B4803014490860704770477047704780B581
S3151FFF11C4FFF7B4FF01BD04200F49086070470E489F
S3151FFF11D40068810701D50C49086070475FF400302A
S3151FFF11E40949086070475FF48030074908607047F4
S3151FFF11F40040024000400A40E420FF1F2421FF1F36
S3151FFF1204E41FFF1F2040024020400A4070477047DB
S3151FFF12147047000000B587B04D48006850F47850FA
S3151FFF12244B4908604CF220504A4908804DF6281056
S3151FFF1234484908804FF4E9704749088000F0B8F819
S3151FFF1244642000F005F900F05FF84448006844493C
S3151FFF125408604348006843490968C1F30361491C91
S3151FFF1264B0FBF1F0404908603D4800683D490968F5
S3151FFF1274C1F30351491CB0FBF1F03C4908603848E0
S3151FFF1284006838490968C1F30341491CB0FBF1F0F3
S3151FFF129437490860374801905FF4E130029001A98E
S3151FFF12A484B06846142200F09FF90FBCFFF7B8F805
S3151FFF12B426A0FFF794FD3048FFF791FD2F493048CD
S3151FFF12C4FFF78DFD284800682E49B0FBF1F224482D
S3151FFF12D400682C49B0FBF1F12B48FFF780FD24482A
S3151FFF12E400682849B0FBF1F2204800682549B0FB86
S3151FFF12F4F1F12648FFF773FD2548FFF770FD2548D3
S3151FFF1304FFF76DFD07B000BD23480078C0B210F08C
S3151FFF13141F0018302149484321490978C9B211F0E2
S3151FFF13241F01491CB0FBF1F00C490860704780B5DB
S3151FFF13341C48FFF754FD01BD80B51B480078C0B29A
S3151FFF1344B0F110011948FFF74AFD01BD0D0A000050
S3151FFF1354388004400E20054000200540D81FFF1F7C
S3151FFF1364C81FFF1F44800440CC1FFF1FD41FFF1F2E
S3151FFF1374D01FFF1F00B00E40B41CFF1F741FFF1F9B
S3151FFF13847C1DFF1F40420F00041EFF1F281EFF1F49
S3151FFF1394F81CFF1F6C1CFF1F0540064080F0FA0256
S3151FFF13A404400640801EFF1F04ED00E0AC1DFF1F17
S3151FFF13B41C481D4988420BD0002006E01A4951F8E4
S3151FFF13C42010184A42F82010401CB0F5826FF5D33F
S3151FFF13D41448164908601649164A1748801A03E027
S3151FFF13E413780B70521C491C0300581E002BF7D190
S3151FFF13F412491348401A02E000220A70491C0200D0
S3151FFF1404501E002AF8D10F490F4A1048801A03E0CD
S3151FFF141413780B70521C491C0300581E002BF7D15F
S3151FFF1424704700BF0000FF1F0000FF1F08ED00E00D
S3151FFF1434C81FFF1F341FFF1F481FFF1FDC1FFF1F70
S3151FFF1444A422FF1F7C1FFF1F201CFF1F6C1CFF1FD7
S3151FFF1454F8B5C0B2C92801D3C820FFE7C0B201003F
S3151FFF146430290ED032291AD060291BD064291CD0EB
S3151FFF147478291DD096291ED0B4291FD0C82920D05C
S3151FFF148422E01827002506000024C0B23221B0FB34
S3151FFF1494F1F1491EC9B2FF291AD1002120E01827ED
S3151FFF14A40125F0E718271825EDE718271A25EAE778
S3151FFF14B413271825E7E70F271825E4E70E271E2509
S3151FFF14C4E1E70C271C25DEE76020FFF7C1FF7CE061
S3151FFF14D4C0B2C9B24A1C90FBF2F2332A00D3491C8D
S3151FFF14E4C0B23222B0FBF2F2521ED2B2FF2A01D190
S3151FFF14F4002207E0C0B2D2B2531C90FBF3F3332B87
S3151FFF150400D3521CC0B21923B0FBF3F35B1EDBB22D
S3151FFF1514FF2B01D1002308E0C0B2DBB213F1010C8C
S3151FFF152490FBFCF01A2800D35B1C0020DFF89CC03D
S3151FFF15348CF800002648006850F08050DFF890C0F2
S3151FFF1544CCF800002348007850F08000DFF884C0F1
S3151FFF15548CF800009820DFF880C08CF800001F4825
S3151FFF15640078C006FBD41D480078C0F38100C0B2C3
S3151FFF15740228F8D117F01F00194F38700020194F92
S3151FFF15843870DBB2D2B2C9B2E4B2200000F0F4FC69
S3151FFF159415F01F0050F04000124908700F480078DD
S3151FFF15A48006FBD50D4800784006FBD50A48007810
S3151FFF15B410F03F000849087008480078C0F38100FF
S3151FFF15C4C0B20328F8D13000C0B2F2BD01400640B5
S3151FFF15D43480044008C007400040064006400640CA
S3151FFF15E40440064005400640103A07D330B4B1E81D
S3151FFF15F43810103AA0E83810F9D230BC530724BF6D
S3151FFF1604B1E80810A0E8081044BF51F8043B40F89E
S3151FFF1614043BD20724BF31F8022B20F8022B44BF09
S3151FFF16240B7803707047083A07D3B1E80810083AD6
S3151FFF163440F8043B40F804CBF7D25307E4E7000016
S3151FFF164480B55848006880475748006850F0010026
S3151FFF16545549086001BD80B55248406880475248C6
S3151FFF1664006850F002005049086001BD80B54D481F
S3151FFF1674806880474C48006850F004004A49086058
S3151FFF168401BD80B54748C06880474748006850F08A
S3151FFF169408004549086001BD80B542480069804777
S3151FFF16A44148006850F010003F49086001BD80B5EE
S3151FFF16B43C48406980473C48006850F020003A493F
S3151FFF16C4086001BD80B53748806980473648006882
S3151FFF16D450F040003449086001BD80B53148C069E8
S3151FFF16E480473148006850F080002F49086001BDCC
S3151FFF16F480B52C48006A80472B48006850F48070D9
S3151FFF17042949086001BD80B52648406A8047264897
S3151FFF1714006850F400702449086001BD80B5214854
S3151FFF1724806A80472048006850F001001E49086000
S3151FFF173401BD80B51B48C06A80471B48006850F42B
S3151FFF174400601949086001BD80B51648006B8047C4
S3151FFF17541548006850F480501349086001BD80B5D1
S3151FFF17641048406B80471048006850F400500E49DC
S3151FFF1774086001BD80B50B48806B80470A48006827
S3151FFF178450F480400849086001BD80B50548C06B09
S3151FFF179480470548006850F400400349086001BDAF
S3151FFF17A4000000007C21FF1F2480004080B53848BD
S3151FFF17B40078C0070CD537480078C00708D53148CD
S3151FFF17C4006880473248007810F0FE0030490870E1
S3151FFF17D42F48007880070CD52E480078800708D538
S3151FFF17E42948006880472A48007810F0FD002849D9
S3151FFF17F408702748007840070CD52648007840070D
S3151FFF180408D52248006880472148007810F0FB005E
S3151FFF18141F49087001BD80B51F480078C0070CD546
S3151FFF18241E480078C00708D51648406880471A48DF
S3151FFF1834007810F0FE0018490870174800788007D3
S3151FFF18440CD516480078800708D50F48406880478F
S3151FFF18541148007810F0FD000F4908700E480078F4
S3151FFF186440070CD50D480078400708D50748406840
S3151FFF187480470948007810F0FB000749087001BD2F
S3151FFF1884000000006421FF1F6C21FF1F7421FF1F2F
S3151FFF189420C00C4021C00C4020D00C4021D00C404E
S3151FFF18A480B52E480078800726D52B4800688047C9
S3151FFF18B42B480078000705D52948007850F0080003
S3151FFF18C42749087026480078800705D524480078DD
S3151FFF18D450F002002249087020480078C00605D53B
S3151FFF18E41E48007850F010001C4908701B480078EA
S3151FFF18F450F002001949087001BD80B519480078D8
S3151FFF1904800726D514484068804717480078000784
S3151FFF191405D51548007850F008001349087012487A
S3151FFF19240078800705D51048007850F002000E494D
S3151FFF193408700C480078C00605D50A48007850F091
S3151FFF19441000084908700748007850F0020005493F
S3151FFF1954087001BD00000000EC21FF1F0360064055
S3151FFF196408600640037006400870064080B5DFF81E
S3151FFF19747800006850F00070DFF86C100860DFF81D
S3151FFF198464000068002803D0DFF85800006880470A
S3151FFF199401BD80B5DFF85000006850F00060DFF826
S3151FFF19A448100860DFF83C004068002803D0DFF8C2
S3151FFF19B434004068804701BD80B5DFF82800806882
S3151FFF19C4002803D0DFF81C008068804701BD80B55F
S3151FFF19D4DFF81000C068002803D0DFF80800C068CE
S3151FFF19E4804701BDBC21FF1F04000C4080B51A4868
S3151FFF19F4006840060CD518480068800608D51748A6
S3151FFF1A04006880471448006830F040001249086098
S3151FFF1A1414480068C0070CD50F480068800308D513
S3151FFF1A240F48006880470F48006850F001000D49B2
S3151FFF1A3408600D48006880070CD5074800688003B7
S3151FFF1A4408D50748006880470748006850F002001A
S3151FFF1A540549086001BD000000600340F821FF1F10
S3151FFF1A64FC21FF1F146003403C60034080B51648EA
S3151FFF1A74006880475FF0FF301449086001BD80B5D9
S3151FFF1A841148406880475FF0FF301149086001BD68
S3151FFF1A9480B50D48806880475FF0FF300D490860A9
S3151FFF1AA401BD80B50848C06880475FF0FF300A490B
S3151FFF1AB4086001BD80B50448006980475FF0FF30A9
S3151FFF1AC40649086001BD0000D821FF1FA0900440EE
S3151FFF1AD4A0A00440A0B00440A0C00440A0D004406E
S3151FFF1AE480B51748006848F21001084217D01548F9
S3151FFF1AF40068002813D01348006880471048006801
S3151FFF1B0450F480400E4908600D48006850F40040A9
S3151FFF1B140B4908604FF6FF700B4908600DE00A4832
S3151FFF1B240068002809D007484068002805D00548E3
S3151FFF1B344068804705480449086001BD000000004E
S3151FFF1B44005004406822FF1F0C5004400000FFFF93
S3151FFF1B5480B51548006880471448006850F0010097
S3151FFF1B641249086001BD80B50F4840688047104879
S3151FFF1B74006850F001000E49086001BD80B50A4890
S3151FFF1B84806880470B48006850F0010009490860C8
S3151FFF1B9401BD80B50448C06880470748006850F0F8
S3151FFF1BA401000549086001BD0022FF1F0C71034098
S3151FFF1BB41C7103402C7103403C71034080B51648CA
S3151FFF1BC40068C00709D51348006880471248006894
S3151FFF1BD450F00100104908601AE00F48006880079B
S3151FFF1BE409D50C48406880470B48006850F002002F
S3151FFF1BF4094908600CE008480068400708D50548EE
S3151FFF1C04806880470448006850F004000249086052
S3151FFF1C1401BD00001022FF1F14D0034070B4104CE7
S3151FFF1C2424680F4D2D6855F47F050D4E3560090643
S3151FFF1C3411F0706151EA0070110511F47001084328
S3151FFF1C44190411F47021084306490860002000E0B7
S3151FFF1C54401CC0B29842FBD30148046070BC704756
S3151FFF1C6400F00140448004402A2A2A2A2A2A2A2AC3
S3151FFF1C742A2A2A2A2A2A2A2A2A2A2A2A2A2A2A2A9C
S3151FFF1C842A2A2A2A2A2A2A2A2A2A2A2A2A2A2A2A8C
S3151FFF1C942A2A2A2A2A2A2A2A2A2A2A2A2A2A2A2A7C
S3151FFF1CA42A2A2A2A2A2A2A2A2A2A2A2A0D0A0000FD
S3151FFF1CB42A2A2A2A2A2A2A2A2A2A2A20BBF9D3DAAD
S3151FFF1CC4C0ADC6D5C0BCB5C24B3630B5D7B2E3BF60
S3151FFF1CD4E220687474703A2F2F7777772E6C706CA7
S3151FFF1CE4642E636E202A2A2A2A2A2A2A2A2A2A2A7B
S3151FFF1CF40D0A0000CFB5CDB3C6F4B6AFCDEAB1CF4B
S3151FFF1D04A3ACC8F4D2AABDFBD3C3B5F7CAD4CAE4DE
S3151FFF1D14B3F6C7EBB6A8D2E55052494E545F4F4EA2
S3151FFF1D245F4F4646CEAA31286B36305F63617264B6
S3151FFF1D342E68290D0A00000019E050F8041BCB0773
S3151FFF1D4444BFA9F101035918121F0023042A41F89E
S3151FFF1D54043BF9D25FEA827C0B4604D54FF0000C95
S3151FFF1D64A1F800C09B1CD10744BF0021197050F86E
S3151FFF1D74042B002AE1D170474F534B696E65746973
S3151FFF1D8473B9CCBCFEBFE2B0E6B1BE3A2573096D8B
S3151FFF1D9461696C3A737570706F7274406C706C64A2
S3151FFF1DA42E636E0D0A0000000D0A2A2A2A2ABDF881
S3151FFF1DB4C8EBCEB4B6A8D2E5D6D0B6CF2C496E742F
S3151FFF1DC4657272757074204E756D62657220256417
S3151FFF1DD42A2A2A2A2A0D0A0010B5074979441831D7
S3151FFF1DE4064C7C44163404E00A68081D11448847D0
S3151FFF1DF40146A142F8D110BD740000008000000007
S3151FFF1E04CFB5CDB3C4DABACBCAB1D6D33A25644D4F
S3151FFF1E14487A09D7DCCFDFCAB1D6D33A25644D48F2
S3151FFF1E247A0D0A00466C6578427573CAB1D6D33AE2
S3151FFF1E3425644D487A09466C617368CAB1D6D33A8D
S3151FFF1E4425644D487A0D0A0080B507480068804708
S3151FFF1E5401BD80B504484068804701BD80B502486F
S3151FFF1E648068804701BD0000CC21FF1FCDFEFFFF09
S3151FFF1E74C8020000DC1FFF1F000000000D0A2A2AEC
S3151FFF1E842A2AC4DABACBB7A2C9FAD3B2BCFEB4EDB7
S3151FFF1E94CEF32A2A2A2A2A0D0A00000080B50548EE
S3151FFF1EA4006850F0800003490860034800688047B4
S3151FFF1EB401BD000000000440F421FF1F80B5054843
S3151FFF1EC40068804701BD80B502484068804701BD51
S3151FFF1ED400000000DC1FFF1F00F00BF8002801D0D5
S3151FFF1EE4FFF77AFF0020C046C04600F004F800F053
S3151FFF1EF403F801207047FEE700F000B8074638468F
S3151FFF1F0400F002F8FBE7000080B5C046C046024A50
S3151FFF1F1411001820ABBEFBE72600020080B50100A7
S3151FFF1F2449B20248FEF703FC01BD000000B00E4094
S3151FFF1F34FFFFFFFFFFFFFFFFFFFFFFFFFFFFFFFF89
S3151FFF1F4400E1F50580B502480068804701BD000022
S3151FFF1F546422FF1F80B502480068804701BD000049
S3151FFF1F64A022FF1FC046C046C046C046FFF7B4FFA8
S3151FFF1F74332E303300000000000000000000000075
S3151FFF1F840000000000000000000000000000000029
S3151FFF1F940000000000000000000000000000000019
S3151FFF1FA40000000000000000000000000000000009
S3151FFF1FB400000000000000000000000000000000F9
S7051FFF1F6954
